:020000040800F2
:10000000002800206D170008191300081F130008AE
:10001000251300082B13000831130008000000000E
:10002000000000000000000000000000371300087E
:1000300043130008000000004F1300085B13000882
:10004000B5170008B5170008B5170008B517000860
:10005000B5170008B5170008B5170008B517000850
:10006000B5170008B5170008B5170008B517000840
:10007000B5170008B5170008B5170008B517000830
:10008000B5170008B5170008B5170008B517000820
:10009000B5170008B5170008B5170008B517000810
:1000A000B5170008B5170008B5170008B517000800
:1000B00069130008B517000800000000B517000814
:1000C000B51700080000000000000000B517000888
:1000D00000000000B5170008B51700080000000078
:1000E000B5170008B5170008B51700080000000094
:1000F0000000000000000000000000000000000000
:0C01000000000000000000005FF808F1A3
:10010C0010B5054C237833B9044B13B10448AFF345
:10011C0000800123237010BD780000200000000037
:10012C00B42D000808B5034B1BB103490348AFF3CA
:10013C00008008BD000000007C000020B42D0008E9
:10014C0080B400AF064B1B68012B04D1044B00227A
:10015C001A60012300E000231846BD4680BC70479E
:10016C009400002080B400AF064B1B68012B04D117
:10017C00044B00221A60012300E000231846BD4600
:10018C0080BC70479800002080B400AF064B1B6801
:10019C00012B04D1044B00221A60012300E0002340
:1001AC001846BD4680BC70479C00002080B483B0CC
:1001BC0000AF78607B68032B11D07B68032B12DCBB
:1001CC007B68012B03D07B68022B04D00BE0094B1E
:1001DC0001221A6008E0084B01221A6004E0074B68
:1001EC0001221A6000E000BF00BF0C37BD4680BC86
:1001FC00704700BF94000020980000209C00002055
:10020C0080B500AF6B4B1B686B4A13606B4B1B6864
:10021C00684A13604FF40051694801F0B1FD034680
:10022C001A46664B1A60634B1A68644B1B689A42F9
:10023C002FD1604B1A68604B1B689A4229D15E4BD8
:10024C001A68604B1B689A420FD05B4B1B685D4A67
:10025C0013605C4B1B68002B1BD15B4B4FF4FA7289
:10026C001A600120FFF7A2FF13E0574B1B68013BFC
:10027C00554A1360544B1B68002B0AD1524B4FF458
:10028C00FA721A604F4B1B68002B02D10120FFF74A
:10029C008DFF4E4B1B684E4A13604E4B1B684B4AEE
:1002AC0013604FF48041464801F06AFD03461A463C
:1002BC00484B1A60454B1A68464B1B689A422FD123
:1002CC00424B1A68424B1B689A4229D1404B1A6820
:1002DC00414B1B689A420FD03D4B1B683E4A136042
:1002EC003D4B1B68002B1BD13C4B4FF4FA721A6030
:1002FC000220FFF75BFF13E0384B1B68013B374ACA
:10030C001360364B1B68002B0AD1344B4FF4FA7236
:10031C001A60314B1B68002B02D10220FFF746FFFD
:10032C002F4B1B682F4A13602F4B1B682C4A1360F2
:10033C004FF40041224801F023FD03461A462A4B94
:10034C001A60274B1A68284B1B689A422FD1244BF2
:10035C001A68244B1B689A4229D1224B1A68234BEA
:10036C001B689A420FD01F4B1B68204A13601F4B0F
:10037C001B68002B1BD11E4B4FF4FA721A60032022
:10038C00FFF714FF13E01A4B1B68013B184A13606C
:10039C00174B1B68002B0AD1154B4FF4FA721A60DD
:1003AC00124B1B68002B02D10320FFF7FFFE00BF8E
:1003BC0080BD00BF040000200800002000000020C9
:1003CC00001001400C000020300000201400002020
:1003DC0018000020100000201C0000203400002019
:1003EC002400002028000020200000202C000020E9
:1003FC003800002080B500AFA24B1B68013B042BDA
:10040C0000F29D8101A252F823F000BF2D040008D8
:10041C00F7040008790500080F060008B906000863
:10042C0001220221984801F0C2FC012204219648C5
:10043C0001F0BDFC01220821934801F0B8FC012217
:10044C001021914801F0B3FC012220218E4801F0CB
:10045C00AEFC012240218C4801F0A9FC0122802134
:10046C00894801F0A4FC01224FF48071864801F008
:10047C009EFC01224FF40071834801F098FC01228C
:10048C004FF48061804801F092FC01224FF400612E
:10049C007D4801F08CFC01224FF480517A4801F028
:1004AC0086FC784B02221A60784B1B68784A82FBD8
:1004BC0003129211DB17D31A764A1360764B1B6822
:1004CC00734A82FB03129211DB17D31A734A13601F
:1004DC00714B1B68184600F033FE4FF47A7000F035
:1004EC0049FE322000F060FE32E10B2000F046FFA6
:1004FC0000F030FC6A4B1B68012B10D1684B0022BA
:10050C001A60644B1B68013B624A1360634B1B68A7
:10051C00013B624A13604FF47A7000F02BFE614B82
:10052C001B68012B40F00D815C4B1B68002B40F0CD
:10053C0008815C4B00221A60524B03221A605A4B02
:10054C001B68534A82FB03129211DB17D31A534ACE
:10055C001360554B1B68184600F0F2FD4FF47A708F
:10056C0000F008FE322000F01FFEEAE00C2000F044
:10057C0005FF00F0EFFB4A4B1B68012B10D1484BD9
:10058C0000221A60434B1B68013B424A1360434BE9
:10059C001B68013B414A13604FF47A7000F0EAFD8E
:1005AC00404B1B68012B40F0CE803A4B1B68002B54
:1005BC0040F0C9803B4B00221A60324B04221A6077
:1005CC00354B1B68324A82FB03129211DB17D31A8C
:1005DC00304A13602D4B1B682D4A82FB031292117B
:1005EC00DB17D31A2D4A13602B4B1B68184600F0EF
:1005FC00A7FD4FF47A7000F0BDFD322000F0D4FD61
:10060C00A1E00D2000F0BAFE00F0A4FB244B1B6807
:10061C00012B10D1224B00221A601E4B1B68013B90
:10062C001C4A13601D4B1B68013B1C4A13604FF4A2
:10063C007A7000F09FFD1B4B1B68012B40F08580EE
:10064C00144B1B68002B40F08080164B00221A6064
:10065C000C4B05221A60144B1B680D4A82FB0312CB
:10066C009211DB17D31A0B4A13600F4B1B681846F9
:10067C0000F066FD4FF47A7000F07CFD322000F043
:10068C0093FD62E048000020000801403C0000207F
:10069C00D34D6210C800002044000020CC00002084
:1006AC00B0000020A8000020400000200E2000F028
:1006BC0065FE00F04FFB274B1B68012B10D1254B1F
:1006CC0000221A60244B1B68013B234A1360234B06
:1006DC001B68013B214A13604FF47A7000F04AFD0D
:1006EC001F4B1B68012B32D11C4B1B68002B2ED1CE
:1006FC001B4B00221A601B4B02221A601A4B1B6800
:10070C001A4A82FB03129211DB17D31A124A136096
:10071C00174B1B68154A82FB03129211DB17D31A75
:10072C000E4A1360124B1B68184600F009FD4FF47B
:10073C007A7000F01FFD322000F036FD07E000BF9C
:10074C0006E000BF04E000BF02E000BF00E000BF15
:10075C0000BF80BDB0000020C8000020CC000020ED
:10076C00A8000020480000203C000020D34D62105F
:10077C004400002080B500AFFFF7E2FC0346002BDD
:10078C0030D0574B1B68152B2CD10F2000F0F6FDE9
:10079C00534B16221A60534B1B68534A13600022AA
:1007AC000121524801F003FB002202214F4801F0C5
:1007BC00FEFA4D4B1B684E4A82FB03121213DB17D9
:1007CC00D31A4C4A1360484B1A68494B83FB0213EB
:1007DC001913D317CB1A42F2107101FB03F3D31A7E
:1007EC00444A5360FFF7ACFC0346002B30D03C4B23
:1007FC001B68162B2CD1102000F0C0FD384B172293
:10080C001A603D4B1B683D4A13600022012137489A
:10081C0001F0CDFA00220221344801F0C8FA374B1E
:10082C001B68334A82FB03121213DB17D31A314AAB
:10083C001360324B1A682E4B83FB02131913D31718
:10084C00CB1A42F2107101FB03F3D31A294A5360FD
:10085C00FFF776FC0346002B30D0214B1B68172B7F
:10086C002CD1112000F08AFD1D4B18221A60244B4C
:10087C001B68244A1360002201211C4801F097FADE
:10088C0000220221194801F092FA1E4B1B68184AEB
:10089C0082FB03121213DB17D31A164A1360194B7F
:1008AC001A68134B83FB02131913D317CB1A42F29A
:1008BC00107101FB03F3D31A0E4A5360FFF740FC8F
:1008CC000346002B09D0064B1B68182B05D1044B93
:1008DC0015221A600C4B01221A6000BF80BD00BFAC
:1008EC004C0000203C000020BC000020000C01400B
:1008FC00AD8BDB685000002040000020C4000020BD
:10090C0044000020C00000204800002080B500AF4B
:10091C00364B1B68182B42D0182B5EDC162B02D0E2
:10092C00172B1ED059E0FFF71DFC0346002B0ED0F1
:10093C002F4B1B6803F57A732D4A13602C4B1B68E5
:10094C002C4A934203DD2A4B4FF47A721A60FFF75C
:10095C001BFC0346002B42D0254B1B68264A136018
:10096C003DE0FFF7FFFB0346002B0ED0234B1B682B
:10097C0003F57A73214A1360204B1B681D4A93427E
:10098C0003DD1E4B4FF47A721A60FFF7FDFB034632
:10099C00002B26D0194B1B68194A136021E0FFF776
:1009AC00E1FB0346002B0ED0164B1B6803F57A7344
:1009BC00144A1360134B1B680E4A934203DD114B10
:1009CC004FF47A721A60FFF7DFFB0346002B0AD054
:1009DC000C4B1B680C4A136005E000BF04E000BF21
:1009EC0002E000BF00E000BF00BF80BD4C00002053
:1009FC00BC000020B88201003C000020C400002094
:100A0C0040000020C00000204400002080B582B0CF
:100A1C0000AF78607B68002B25D100221021CC48D8
:100A2C0001F0C5F900222021C94801F0C0F90022CB
:100A3C004021C74801F0BBF900228021C44801F0D5
:100A4C00B6F900224FF48071C14801F0B0F90022D0
:100A5C004FF40071BE4801F0AAF901224FF48061F5
:100A6C00BB4801F0A4F97B68012B25D10122102190
:100A7C00B74801F09CF900222021B54801F097F904
:100A8C0000224021B24801F092F901228021B048A5
:100A9C0001F08DF901224FF48071AD4801F087F916
:100AAC0001224FF40071AA4801F081F901224FF4A0
:100ABC008061A74801F07BF97B68022B25D10022CD
:100ACC001021A34801F073F900222021A04801F065
:100ADC006EF9012240219E4801F069F90022802123
:100AEC009B4801F064F900224FF48071984801F0A2
:100AFC005EF901224FF40071954801F058F900227B
:100B0C004FF48061924801F052F97B68032B25D198
:100B1C00002210218E4801F04AF9002220218C4835
:100B2C0001F045F900224021894801F040F90022EA
:100B3C008021874801F03BF901224FF480718448F1
:100B4C0001F035F901224FF40071814801F02FF9C1
:100B5C0000224FF480617E4801F029F97B68042B58
:100B6C0025D1012210217A4801F021F900222021FF
:100B7C00774801F01CF900224021754801F017F963
:100B8C0001228021724801F012F901224FF4807188
:100B9C006F4801F00CF900224FF400716C4801F021
:100BAC0006F900224FF48061694801F000F97B6876
:100BBC00052B25D100221021654801F0F8F80122FF
:100BCC002021634801F0F3F800224021604801F035
:100BDC00EEF8002280215E4801F0E9F801224FF482
:100BEC0080715B4801F0E3F800224FF40071584823
:100BFC0001F0DDF800224FF48061554801F0D7F880
:100C0C007B68062B25D100221021514801F0CFF82A
:100C1C00012220214E4801F0CAF8002240214C4804
:100C2C0001F0C5F800228021494801F0C0F80022EB
:100C3C004FF48071464801F0BAF800224FF400716D
:100C4C00434801F0B4F800224FF48061404801F0B1
:100C5C00AEF87B68072B25D1002210213C4801F00F
:100C6C00A6F8002220213A4801F0A1F800224021E8
:100C7C00374801F09CF801228021354801F097F8A3
:100C8C0001224FF48071324801F091F801224FF4A7
:100C9C0000712F4801F08BF801224FF480612C4831
:100CAC0001F085F87B68082B25D1002210212848FB
:100CBC0001F07DF800222021254801F078F800226F
:100CCC004021234801F073F800228021204801F0D4
:100CDC006EF800224FF480711D4801F068F8002274
:100CEC004FF400711A4801F062F800224FF4806151
:100CFC00174801F05CF87B68092B25D100221021E4
:100D0C00134801F054F800222021114801F04FF84B
:100D1C00002240210E4801F04AF8002280210C48A4
:100D2C0001F045F801224FF48071094801F03FF8B9
:100D3C0000224FF40071064801F039F800224FF4FC
:100D4C008061034801F033F800BF0837BD4680BD11
:100D5C00000C014080B500AF5F4B1B685F4A82FB03
:100D6C0003129210DB17D31A5D4A13605A4B1968A1
:100D7C005A4B83FB01239A10CB17D21A13469B00B4
:100D8C0013445B00CA1A564B5A60564B1B68534AA5
:100D9C0082FB03129210DB17D31A514A9360514B0A
:100DAC0019684E4B83FB01239A10CB17D21A1346AA
:100DBC009B0013445B00CA1A494BDA604A4B1B6810
:100DCC00012B40F08780494B1B68032B72D801A282
:100DDC0052F823F0F10D0008250E0008590E0008FA
:100DEC008D0E000800220121414800F0E0FF012295
:100DFC0002213F4800F0DBFF012204213C4800F0B7
:100E0C00D6FF012208213A4800F0D1FF344B1B6871
:100E1C001846FFF7FBFD4EE001220121344800F09B
:100E2C00C6FF00220221324800F0C1FF012204213A
:100E3C002F4800F0BCFF012208212D4800F0B7FF1D
:100E4C00274B5B681846FFF7E1FD34E001220121D6
:100E5C00274800F0ACFF01220221254800F0A7FF33
:100E6C0000220421224800F0A2FF01220821204880
:100E7C0000F09DFF1A4B9B681846FFF7C7FD1AE060
:100E8C00012201211A4800F092FF01220221184888
:100E9C0000F08DFF01220421154800F088FF00228C
:100EAC000821134800F083FF0D4BDB681846FFF751
:100EBC00ADFD00E000BF0D4B1B6801330B4A136006
:100ECC000A4B1B68032B02DD084B00221A603220F0
:100EDC0000F06AF900BF80BDC80000206766666636
:100EEC0058000020CC000020B8000020A0000020FA
:100EFC00000C014080B500AF00F058FC00F014F875
:100F0C0000F09AF800F04CF8064801F095FB6420CC
:100F1C0000F016F9FFF76EFAFFF72CFCFFF7F6FC62
:100F2C00F8E700BFD000002080B590B000AF07F10B
:100F3C00180328220021184601F02EFF3B1D002229
:100F4C001A605A609A60DA601A610223BB6101234D
:100F5C00BB621023FB6200237B6307F11803184666
:100F6C0000F03EFF0346002B01D000F0E3F80F2306
:100F7C007B600023BB600023FB6000233B610023EC
:100F8C007B613B1D0021184601F0AAF90346002B9A
:100F9C0001D000F0CFF800BF4037BD4680BD000047
:100FAC0080B586B000AF07F1080300221A605A60C2
:100FBC009A60DA603B4600221A605A601D4B4FF073
:100FCC0080421A601B4B41F63F725A60194B00224B
:100FDC009A60184B0922DA60164B00221A61154BE5
:100FEC0000229A61134801F0D7FA0346002B01D076
:100FFC0000F0A0F84FF48053BB6007F108031946CA
:10100C000C4801F055FC0346002B01D000F092F87F
:10101C0000233B6000237B603B461946054801F0EA
:10102C002DFE0346002B01D000F084F800BF1837CA
:10103C00BD4680BDD000002080B588B000AF07F160
:10104C00100300221A605A609A60DA602F4B9B6979
:10105C002E4A43F0100393612C4B9B6903F0100351
:10106C00FB60FB68294B9B69284A43F0040393619E
:10107C00264B9B6903F00403BB60BB68234B9B6945
:10108C00224A43F008039361204B9B6903F0080349
:10109C007B607B68002241F6FE711D4800F087FEE4
:1010AC00002240F6FF711B4800F081FE4FF46043B4
:1010BC003B6100237B610123BB6107F110031946DF
:1010CC00154800F0E3FC41F6FE733B6101237B61A4
:1010DC000023BB610223FB6107F1100319460C4886
:1010EC0000F0D4FC40F6FF733B6101237B610023CD
:1010FC00BB610223FB6107F110031946054800F0A0
:10110C00C5FC00BF2037BD4680BD00BF00100240AB
:10111C0000080140000C01400010014080B582B075
:10112C0000AF786000F05AF8FFF76AF800BF083794
:10113C00BD4680BD80B400AF72B600BFFEE70000B4
:10114C0080B483B000AF7860074B1B687A6892FB61
:10115C00F3F3064A1360064B00221A6000BF0C37EB
:10116C00BD4680BC704700BF68000020A400002072
:10117C00A800002080B483B000AF7860074B1B68D8
:10118C007A6892FBF3F3064A1360064B00221A604E
:10119C0000BF0C37BD4680BC704700BF6800002004
:1011AC00AC000020B000002080B483B000AF7860A9
:1011BC00074B1B687A6892FBF3F3064A1360064BE5
:1011CC0000221A6000BF0C37BD4680BC704700BFC0
:1011DC0068000020B4000020B800002080B400AFEC
:1011EC00194B1B68002B0BDD174B1B68013B164A78
:1011FC001360154B1B68002B02DC144B01221A6088
:10120C00134B1B68002B0BDD114B1B68013B104A69
:10121C0013600F4B1B68002B02DC0E4B01221A6073
:10122C000D4B1B68002B0BDD0B4B1B68013B0A4A5B
:10123C001360094B1B68002B02DC084B01221A605F
:10124C0000BFBD4680BC7047A4000020A800002051
:10125C00AC000020B0000020B4000020B80000203A
:10126C0080B485B000AF154B9B69144A43F0010361
:10127C009361124B9B6903F00103BB60BB680F4B7E
:10128C00DB690E4A43F08053D3610C4BDB6903F0EE
:10129C0080537B607B680A4B5B68FB60FB6823F0C8
:1012AC00E063FB60FB6843F00073FB60044AFB687F
:1012BC00536000BF1437BD4680BC7047001002401D
:1012CC000000014080B584B000AF78607B681B687B
:1012DC00B3F1804F13D10C4BDB690B4A43F0010384
:1012EC00D361094BDB6903F00103FB60FB6800224F
:1012FC0000211C2000F093FB1C2000F0ACFB00BF75
:10130C001037BD4680BD00BF0010024080B400AF56
:10131C00FEE780B400AFFEE780B400AFFEE780B418
:10132C0000AFFEE780B400AFFEE780B400AF00BFB3
:10133C00BD4680BC704780B400AF00BFBD4680BCCA
:10134C00704780B400AF00BFBD4680BC704780B50D
:10135C0000AF00F071FA00BF80BD000080B500AF97
:10136C00024801F0B5F900BF80BD00BFD0000020DD
:10137C0080B400AF00BFBD4680BC704780B582B062
:10138C0000AF78607B680B3B062B00F2E18101A279
:10139C0052F823F0BD13000841140008C5140008CE
:1013AC0049150008CD15000851160008D91600087B
:1013BC0000220221C44800F0FAFC00220421C24899
:1013CC0000F0F5FC01220821BF4800F0F0FC0122DE
:1013DC001021BD4800F0EBFC01222021BA4800F09E
:1013EC00E6FC01224021B84800F0E1FC00228021FB
:1013FC00B54800F0DCFC00224FF48071B24800F0DC
:10140C00D6FC01224FF40071AF4800F0D0FC012251
:10141C004FF48061AC4800F0CAFC01224FF400612B
:10142C00A94800F0C4FC01224FF48051A64800F0FA
:10143C00BEFC8EE100220221A34800F0B8FC012280
:10144C000421A14800F0B3FC002208219E4800F0C2
:10145C00AEFC012210219C4800F0A9FC01222021A5
:10146C00994800F0A4FC01224021974800F09FFC11
:10147C0000228021944800F09AFC01224FF48071E4
:10148C00914800F094FC00224FF400718E4800F05B
:10149C008EFC01224FF480618B4800F088FC012205
:1014AC004FF40061884800F082FC01224FF4805117
:1014BC00854800F07CFC4CE101220221824800F0BE
:1014CC0076FC01220421804800F071FC01220821E5
:1014DC007D4800F06CFC002210217B4800F067FC7A
:1014EC0000222021784800F062FC0122402176483D
:1014FC0000F05DFC01228021734800F058FC0122B1
:10150C004FF48071704800F052FC01224FF40071CE
:10151C006D4800F04CFC00224FF480616A4800F0EA
:10152C0046FC00224FF40061674800F040FC0122A9
:10153C004FF48051644800F03AFC0AE10122022188
:10154C00614800F034FC012204215F4800F02FFCBC
:10155C00012208215C4800F02AFC002210215A4884
:10156C0000F025FC01222021574800F020FC00222D
:10157C004021554800F01BFC01228021524800F00C
:10158C0016FC01224FF480714F4800F010FC012230
:10159C004FF400714C4800F00AFC00224FF48061BB
:1015AC00494800F004FC01224FF40061464800F069
:1015BC00FEFB00224FF48051434800F0F8FBC8E0DA
:1015CC0000220221404800F0F2FB012204213E4897
:1015DC0000F0EDFB012208213B4800F0E8FB002263
:1015EC001021394800F0E3FB01222021364800F09D
:1015FC00DEFB01224021344800F0D9FB002280217F
:10160C00314800F0D4FB01224FF480712E4800F0D9
:10161C00CEFB01224FF400712B4800F0C8FB0022D6
:10162C004FF48061284800F0C2FB01224FF40061A6
:10163C00254800F0BCFB01224FF48051224800F0F9
:10164C00B6FB86E0012202211F4800F0B0FB01220C
:10165C0004211D4800F0ABFB002208211A4800F0C1
:10166C00A6FB01221021184800F0A1FB0122202129
:10167C00154800F09CFB00224021134800F097FB1A
:10168C0001228021104800F092FB01224FF480715E
:10169C000D4800F08CFB00224FF400710A4800F05A
:1016AC0086FB01224FF48061074800F080FB012289
:1016BC004FF40061044800F07AFB00224FF4805193
:1016CC00014800F074FB44E00008014001220221B3
:1016DC00224800F06CFB00220421204800F067FB3C
:1016EC00012208211D4800F062FB012210211B4839
:1016FC0000F05DFB00222021184800F058FB01226D
:10170C004021164800F053FB01228021134800F0C1
:10171C004EFB00224FF48071104800F048FB012270
:10172C004FF400710D4800F042FB01224FF4806130
:10173C000A4800F03CFB00224FF40061074800F01F
:10174C0036FB01224FF48051044800F030FB00E0DE
:10175C0000BF00BF0837BD4680BD00BF0008014078
:10176C00FFF706FE0B480C490C4A002302E0D45844
:10177C00C4500433C4188C42F9D3094A094C0023D1
:10178C0001E013600432A242FBD301F0E1FAFFF74F
:10179C00B1FB70470000002078000020F82D0008F5
:1017AC00780000201C010020FEE7000080B500AF8F
:1017BC00084B1B68074A43F010031360032000F02A
:1017CC0023F90F2000F008F8FFF74AFD0023184614
:1017DC0080BD00BF0020024080B582B000AF7860B1
:1017EC00124B1A68124B1B7819464FF47A73B3FBE1
:1017FC00F1F3B2FBF3F3184600F03BF90346002B70
:10180C0001D001230EE07B680F2B0AD800227968E7
:10181C004FF0FF3000F003F9064A7B681360002399
:10182C0000E0012318460837BD4680BD6C0000203F
:10183C00740000207000002080B400AF054B1B78B2
:10184C001A46054B1B681344034A136000BFBD4680
:10185C0080BC7047740000201801002080B400AFD9
:10186C00024B1B681846BD4680BC7047180100200F
:10187C0080B485B000AF78607B6803F00703FB6031
:10188C000C4BDB68BB60BA684FF6FF031340BB60C0
:10189C00FB681A02BB68134343F0BF6343F4003385
:1018AC00BB60044ABB68D36000BF1437BD4680BC24
:1018BC00704700BF00ED00E080B400AF044BDB6864
:1018CC001B0A03F007031846BD4680BC704700BFD7
:1018DC0000ED00E080B483B000AF0346FB7197F9D4
:1018EC000730002B0BDBFB7903F01F02064997F93D
:1018FC0007305B09012000FA02F241F8232000BFF7
:10190C000C37BD4680BC704700E100E080B483B06A
:10191C0000AF03463960FB7197F90730002B0ADBE7
:10192C003B68DAB20C4997F907301201D2B20B447A
:10193C0083F800230AE03B68DAB20849FB7903F02C
:10194C000F03043B1201D2B20B441A7600BF0C37C2
:10195C00BD4680BC704700BF00E100E000ED00E038
:10196C0080B489B000AFF860B9607A60FB6803F0AE
:10197C000703FB61FB69C3F10703042B28BF042396
:10198C00BB61FB690433062B02D9FB69033B00E006
:10199C0000237B614FF0FF32BB6902FA03F3DA4399
:1019AC00BB681A407B699A404FF0FF317B6901FAA2
:1019BC0003F3D9437B680B40134318462437BD46C9
:1019CC0080BC704780B582B000AF78607B68013B0B
:1019DC00B3F1807F01D301230FE00A4A7B68013BFE
:1019EC0053600F214FF0FF30FFF790FF054B0022A3
:1019FC009A60044B07221A60002318460837BD462C
:101A0C0080BD00BF10E000E080B582B000AF786010
:101A1C007868FFF72DFF00BF0837BD4680BD80B545
:101A2C0086B000AF0346B9607A60FB7300237B611C
:101A3C00FFF742FF78617A68B9687869FFF790FF21
:101A4C00024697F90F3011461846FFF75FFF00BFAB
:101A5C001837BD4680BD80B582B000AF0346FB7120
:101A6C0097F907301846FFF735FF00BF0837BD461A
:101A7C0080BD80B582B000AF78607868FFF7A2FFB8
:101A8C00034618460837BD4680BD000080B48BB0B5
:101A9C0000AF7860396000237B6200233B6248E131
:101AAC0001227B6A02FA03F3FB613B681B68FA694B
:101ABC001340BB61BA69FB699A4240F037813B68BD
:101ACC005B68A34A93425ED0A14A934275D8A14A5F
:101ADC00934258D09F4A93426FD89F4A934252D018
:101AEC009D4A934269D89D4A93424CD09B4A93425B
:101AFC0063D89B4A934246D0994A93425DD8122BA5
:101B0C002AD8122B59D801A252F823F0931B0008A3
:101B1C006D1B00087F1B0008C11B0008C71B0008B9
:101B2C00C71B0008C71B0008C71B0008C71B000801
:101B3C00C71B0008C71B0008C71B0008C71B0008F1
:101B4C00C71B0008C71B0008C71B0008C71B0008E1
:101B5C00751B0008891B0008824A934213D02CE0A5
:101B6C003B68DB683B6229E03B68DB6804333B6223
:101B7C0024E03B68DB6808333B621FE03B68DB68B2
:101B8C000C333B621AE03B689B68002B02D10423A8
:101B9C003B6213E03B689B68012B05D108233B6239
:101BAC007B68FA691A6109E008233B627B68FA6971
:101BBC005A6103E000233B6200E000BFBB69FF2BCE
:101BCC0001D87B6801E07B6804337B61BB69FF2B28
:101BDC0002D87B6A9B0002E07B6A083B9B003B615E
:101BEC007B691A680F213B6901FA03F3DB431A4046
:101BFC00396A3B6901FA03F31A437B691A603B6843
:101C0C005B6803F08053002B00F09080564B9B696F
:101C1C00554A43F001039361534B9B6903F0010355
:101C2C00BB60BB68514A7B6A9B08023352F8233075
:101C3C00FB607B6A03F003039B000F2202FA03F3A1
:101C4C00DB43FA681340FB607B68494A93420DD032
:101C5C007B68484A934207D07B68474A934201D13C
:101C6C00022304E0032302E0012300E000237A6A4C
:101C7C0002F0030292009340FA681343FB603B4965
:101C8C007B6A9B080233FA6841F823203B685B6847
:101C9C0003F48013002B06D0384B9A683749BB6984
:101CAC0013438B6006E0354B9A68BB69DB433349C1
:101CBC0013408B603B685B6803F40013002B06D069
:101CCC002E4BDA682D49BB691343CB6006E02B4BD6
:101CDC00DA68BB69DB4329491340CB603B685B681E
:101CEC0003F40033002B06D0244B5A682349BB69FC
:101CFC0013434B6006E0214B5A68BB69DB431F4919
:101D0C0013404B603B685B6803F48033002B06D0B8
:101D1C001A4B1A681949BB6913430B6006E0174B41
:101D2C001A68BB69DB43154913400B607B6A0133AE
:101D3C007B623B681A687B6A22FA03F3002B7FF400
:101D4C00AFAE00BF00BF2C37BD4680BC704700BF94
:101D5C000000321000003110000022100000211091
:101D6C000000121000001110001002400000014091
:101D7C0000080140000C014000100140000401402B
:101D8C0080B485B000AF78600B467B807B689A6826
:101D9C007B881340002B02D00123FB7301E000234E
:101DAC00FB73FB7B18461437BD4680BC704780B470
:101DBC0083B000AF78600B467B8013467B707B78DA
:101DCC00002B03D07A887B681A6103E07B881A04A5
:101DDC007B681A6100BF0C37BD4680BC70470000A1
:101DEC0080B586B000AF78607B68002B01D10123F1
:101DFC006CE27B681B6803F00103002B00F087800A
:101E0C00924B5B6803F00C03042B0CD08F4B5B687C
:101E1C0003F00C03082B12D18C4B5B6803F480335A
:101E2C00B3F5803F0BD1894B1B6803F40033002BB7
:101E3C006CD07B685B68002B68D1012346E27B6821
:101E4C005B68B3F5803F06D1804B1B687F4A43F437
:101E5C00803313602EE07B685B68002B0CD17B4BCE
:101E6C001B687A4A23F480331360784B1B68774ADB
:101E7C0023F4802313601DE07B685B68B3F5A02F0F
:101E8C000CD1724B1B68714A43F4802313606F4B67
:101E9C001B686E4A43F4803313600BE06B4B1B687A
:101EAC006A4A23F480331360684B1B68674A23F437
:101EBC00802313607B685B68002B13D0FFF7CEFC8C
:101ECC00386108E0FFF7CAFC02463B69D31A642B61
:101EDC0001D90323FAE15D4B1B6803F40033002B9B
:101EEC00F0D014E0FFF7BAFC386108E0FFF7B6FC5D
:101EFC0002463B69D31A642B01D90323E6E1534B09
:101F0C001B6803F40033002BF0D100E000BF7B68AA
:101F1C001B6803F00203002B63D04C4B5B6803F08F
:101F2C000C03002B0BD0494B5B6803F00C03082B04
:101F3C001CD1464B5B6803F48033002B16D1434B0A
:101F4C001B6803F00203002B05D07B681B69012B77
:101F5C0001D00123BAE13D4B1B6823F0F8027B68EA
:101F6C005B69DB00394913430B603AE07B681B6902
:101F7C00002B20D0364B01221A60FFF76FFC386122
:101F8C0008E0FFF76BFC02463B69D31A022B01D920
:101F9C0003239BE12D4B1B6803F00203002BF0D0B5
:101FAC002A4B1B6823F0F8027B685B69DB0027492E
:101FBC0013430B6015E0264B00221A60FFF74EFC12
:101FCC00386108E0FFF74AFC02463B69D31A022B42
:101FDC0001D903237AE11D4B1B6803F00203002B8C
:101FEC00F0D17B681B6803F00803002B3AD07B68A8
:101FFC009B69002B19D0174B01221A60FFF72EFC9E
:10200C00386108E0FFF72AFC02463B69D31A022B21
:10201C0001D903235AE10D4B5B6A03F00203002B39
:10202C00F0D0012000F09AFA1CE00A4B00221A6052
:10203C00FFF714FC38610FE0FFF710FC02463B6918
:10204C00D31A022B08D9032340E100BF0010024031
:10205C0000004242800442429E4B5B6A03F0020342
:10206C00002BE9D17B681B6803F00403002B00F004
:10207C00A6800023FB75974BDB6903F08053002B84
:10208C000DD1944BDB69934A43F08053D361914B50
:10209C00DB6903F08053BB60BB680123FB758E4B7F
:1020AC001B6803F48073002B18D18B4B1B688A4A76
:1020BC0043F480731360FFF7D1FB386108E0FFF73E
:1020CC00CDFB02463B69D31A642B01D90323FDE0F7
:1020DC00814B1B6803F48073002BF0D07B68DB68AA
:1020EC00012B06D17B4B1B6A7A4A43F00103136226
:1020FC002DE07B68DB68002B0CD1764B1B6A754A94
:10210C0023F001031362734B1B6A724A23F004031E
:10211C0013621CE07B68DB68052B0CD16D4B1B6AD2
:10212C006C4A43F0040313626A4B1B6A694A43F01E
:10213C00010313620BE0674B1B6A664A23F0010331
:10214C001362644B1B6A634A23F0040313627B68BB
:10215C00DB68002B15D0FFF781FB38610AE0FFF735
:10216C007DFB02463B69D31A41F28832934201D976
:10217C000323ABE0574B1B6A03F00203002BEED09A
:10218C0014E0FFF76BFB38610AE0FFF767FB0246D0
:10219C003B69D31A41F28832934201D9032395E06B
:1021AC004C4B1B6A03F00203002BEED1FB7D012B81
:1021BC0005D1484BDB69474A23F08053D3617B68D8
:1021CC00DB69002B00F08180424B5B6803F00C0351
:1021DC00082B61D07B68DB69022B46D13F4B002278
:1021EC001A60FFF73BFB386108E0FFF737FB02464C
:1021FC003B69D31A022B01D9032367E0354B1B68CB
:10220C0003F00073002BF0D17B681B6AB3F5803FA1
:10221C0008D1304B5B6823F400327B689B682D49F6
:10222C0013434B602B4B5B6823F474127B68196A65
:10223C007B685B6A0B43274913434B60274B012296
:10224C001A60FFF70BFB386108E0FFF707FB02464B
:10225C003B69D31A022B01D9032337E01D4B1B68B2
:10226C0003F00073002BF0D02FE01C4B00221A60FF
:10227C00FFF7F4FA386108E0FFF7F0FA02463B6921
:10228C00D31A022B01D9032320E0124B1B6803F055
:10229C000073002BF0D118E07B68DB69012B01D1B6
:1022AC00012313E00B4B5B68FB60FB6803F480328B
:1022BC007B681B6A9A4206D1FB6803F470127B6838
:1022CC005B6A9A4201D0012300E0002318461837BC
:1022DC00BD4680BD001002400070004060004242CC
:1022EC0080B584B000AF786039607B68002B01D179
:1022FC000123D0E06A4B1B6803F007033A689A424B
:10230C0010D9674B1B6823F0070265493B681343E0
:10231C000B60634B1B6803F007033A689A4201D0C9
:10232C000123B8E07B681B6803F00203002B20D06C
:10233C007B681B6803F00403002B05D0594B5B68CA
:10234C00584A43F4E06353607B681B6803F008034E
:10235C00002B05D0534B5B68524A43F460535360D7
:10236C00504B5B6823F0F0027B689B684D4913432C
:10237C004B607B681B6803F00103002B40D07B682B
:10238C005B68012B07D1474B1B6803F40033002B10
:10239C0015D101237FE07B685B68022B07D1414B91
:1023AC001B6803F00073002B09D1012373E03D4B34
:1023BC001B6803F00203002B01D101236BE0394BA6
:1023CC005B6823F003027B685B68364913434B6000
:1023DC00FFF744FAF8600AE0FFF740FA0246FB68A0
:1023EC00D31A41F28832934201D9032353E02D4B87
:1023FC005B6803F00C027B685B689B009A42EBD134
:10240C00274B1B6803F007033A689A4210D2244BFF
:10241C001B6823F0070222493B6813430B60204BD7
:10242C001B6803F007033A689A4201D0012332E09B
:10243C007B681B6803F00403002B08D0194B5B6806
:10244C0023F4E0627B68DB68164913434B607B68BE
:10245C001B6803F00803002B09D0124B5B6823F4B4
:10246C0060527B681B69DB000E4913434B6000F024
:10247C0021F802460B4B5B681B0903F00F030A495A
:10248C00CB5C22FA03F3094A1360094B1B6818460C
:10249C00FFF7A2F9002318461037BD4680BD00BFD8
:1024AC000020024000100240CC2D00086C000020DF
:1024BC007000002080B487B000AF0023FB600023C5
:1024CC00BB6000237B6100237B6000233B611E4BC0
:1024DC005B68FB60FB6803F00C03042B02D0082B39
:1024EC0003D027E0194B3B6127E0FB689B0C03F002
:1024FC000F03174AD35C7B60FB6803F48033002B1B
:10250C0010D0114B5B685B0C03F00103114AD35CD8
:10251C00BB607B680D4A02FB03F2BB68B2FBF3F3B2
:10252C007B6104E07B680C4A02FB03F37B617B69F3
:10253C003B6102E0054B3B6100BF3B6918461C3711
:10254C00BD4680BC704700BF0010024000127A00EC
:10255C00DC2D0008EC2D000800093D0080B485B08E
:10256C0000AF78600A4B1B680A4AA2FB03235B0A84
:10257C007A6802FB03F3FB6000BFFB685A1EFA602B
:10258C00002BF9D100BF00BF1437BD4680BC70478B
:10259C006C000020D34D621080B582B000AF786023
:1025AC007B68002B01D1012341E07B6893F83D301F
:1025BC00DBB2002B06D17B68002283F83C207868C4
:1025CC00FEF780FE7B68022283F83D207B681A6848
:1025DC007B6804331946104600F056FA7B680122DA
:1025EC0083F846207B68012283F83E207B68012219
:1025FC0083F83F207B68012283F840207B6801220E
:10260C0083F841207B68012283F842207B680122F9
:10261C0083F843207B68012283F844207B680122E5
:10262C0083F845207B68012283F83D20002318465F
:10263C000837BD4680BD000080B485B000AF78601F
:10264C007B6893F83D30DBB2012B01D0012335E0E0
:10265C007B68022283F83D207B681B68DA687B6804
:10266C001B6842F00102DA607B681B68164A9342D1
:10267C0009D07B681B68B3F1804F04D07B681B6862
:10268C00124A934211D17B681B689B6803F00703C5
:10269C00FB60FB68062B10D07B681B681A687B6894
:1026AC001B6842F001021A6007E07B681B681A681D
:1026BC007B681B6842F001021A600023184614372D
:1026CC00BD4680BC704700BF002C01400004004098
:1026DC0080B584B000AF78607B681B68DB68FB60FA
:1026EC007B681B681B69BB60BB6803F00203002B93
:1026FC0020D0FB6803F00203002B1BD07B681B6807
:10270C006FF002021A617B6801221A777B681B68E2
:10271C009B6903F00303002B03D0786800F098F951
:10272C0005E0786800F08BF9786800F09AF97B681E
:10273C0000221A77BB6803F00403002B20D0FB683F
:10274C0003F00403002B1BD07B681B686FF00402A2
:10275C001A617B6802221A777B681B689B6903F4F9
:10276C004073002B03D0786800F072F905E07868AC
:10277C0000F065F9786800F074F97B6800221A772C
:10278C00BB6803F00803002B20D0FB6803F00803A0
:10279C00002B1BD07B681B686FF008021A617B68EA
:1027AC0004221A777B681B68DB6903F00303002B98
:1027BC0003D0786800F04CF905E0786800F03FF938
:1027CC00786800F04EF97B6800221A77BB6803F03A
:1027DC001003002B20D0FB6803F01003002B1BD040
:1027EC007B681B686FF010021A617B6808221A77ED
:1027FC007B681B68DB6903F44073002B03D078689B
:10280C0000F026F905E0786800F019F9786800F016
:10281C0028F97B6800221A77BB6803F00103002BB0
:10282C000CD0FB6803F00103002B07D07B681B68FE
:10283C006FF001021A617868FEF770FCBB6803F058
:10284C008003002B0CD0FB6803F08003002B07D017
:10285C007B681B686FF080021A61786800F06FFA71
:10286C00BB6803F04003002B0CD0FB6803F0400363
:10287C00002B07D07B681B686FF040021A617868E8
:10288C0000F0F8F8BB6803F02003002B0CD0FB68B9
:10289C0003F02003002B07D07B681B686FF020022D
:1028AC001A61786800F042FA00BF1037BD4680BD4F
:1028BC0080B584B000AF786039600023FB737B680F
:1028CC0093F83C30012B01D10223B4E07B68012248
:1028DC0083F83C207B68022283F83D207B681B68D0
:1028EC009B68BB60BB6823F07703BB60BB6823F4B9
:1028FC007F43BB607B681B68BA689A603B681B6847
:10290C00B3F5005F3ED0B3F5005F00F28780B3F5FE
:10291C00805F00F08680B3F5805F7FD8702B1AD073
:10292C00702B7BD8602B50D0602B77D8502B3CD0A1
:10293C00502B73D8402B58D0402B6FD8302B64D0F1
:10294C00302B6BD8202B60D0202B67D8002B5CD081
:10295C00102B5AD062E07B6818683B6899683B681A
:10296C005A683B68DB6800F06AF97B681B689B68F7
:10297C00BB60BB6843F07703BB607B681B68BA68BD
:10298C009A604FE07B6818683B6899683B685A68A6
:10299C003B68DB6800F053F97B681B689A687B68BE
:1029AC001B6842F480429A603CE07B6818683B6884
:1029BC0059683B68DB681A4600F0CAF87B681B68EC
:1029CC005021184600F021F92CE07B6818683B6810
:1029DC0059683B68DB681A4600F0E8F87B681B68AE
:1029EC006021184600F011F91CE07B6818683B6800
:1029FC0059683B68DB681A4600F0AAF87B681B68CC
:102A0C004021184600F001F90CE07B681A683B681D
:102A1C001B681946104600F0F8F803E00123FB731D
:102A2C0000E000BF7B68012283F83D207B68002218
:102A3C0083F83C20FB7B18461037BD4680BD80B424
:102A4C0083B000AF786000BF0C37BD4680BC7047C8
:102A5C0080B483B000AF786000BF0C37BD4680BC3B
:102A6C00704780B483B000AF786000BF0C37BD46B0
:102A7C0080BC704780B483B000AF786000BF0C3767
:102A8C00BD4680BC7047000080B485B000AF786054
:102A9C0039607B681B68FB607B682B4A934207D0CC
:102AAC007B68B3F1804F03D07B68284A934208D1EE
:102ABC00FB6823F07003FB603B685B68FA681343A8
:102ACC00FB607B68204A934207D07B68B3F1804F50
:102ADC0003D07B681D4A934208D1FB6823F44073F2
:102AEC00FB603B68DB68FA681343FB60FB6823F010
:102AFC0080023B685B691343FB607B68FA681A6071
:102B0C003B689A687B68DA623B681A687B689A62F1
:102B1C007B680D4A934203D13B681A697B681A6340
:102B2C007B6801225A617B681B6903F00103002B4F
:102B3C0005D07B681B6923F001027B681A6100BF1A
:102B4C001437BD4680BC7047002C01400004004087
:102B5C0080B487B000AFF860B9607A60FB681B6A1C
:102B6C007B61FB681B6A23F00102FB681A62FB683D
:102B7C009B693B613B6923F0F0033B617B681B0164
:102B8C003A6913433B617B6923F00A037B617A69E1
:102B9C00BB6813437B61FB683A699A61FB687A698D
:102BAC001A6200BF1C37BD4680BC704780B487B02A
:102BBC0000AFF860B9607A60FB681B6A7B61FB68E8
:102BCC001B6A23F01002FB681A62FB689B693B616D
:102BDC003B6923F470433B617B681B033A691343E5
:102BEC003B617B6923F0A0037B61BB681B017A69A5
:102BFC0013437B61FB683A699A61FB687A691A62D4
:102C0C0000BF1C37BD4680BC704780B485B000AF98
:102C1C00786039607B689B68FB60FB6823F070030D
:102C2C00FB603A68FB68134343F00703FB607B6867
:102C3C00FA689A6000BF1437BD4680BC704780B4F8
:102C4C0087B000AFF860B9607A603B60FB689B6846
:102C5C007B617B6923F47F437B613B681A027B6851
:102C6C001A43BB6813437A6913437B61FB687A6927
:102C7C009A6000BF1C37BD4680BC704780B485B0DD
:102C8C0000AF786039607B6893F83C30012B01D140
:102C9C00022341E07B68012283F83C207B680222FE
:102CAC0083F83D207B681B685B68FB607B681B6856
:102CBC009B68BB60FB6823F07003FB603B681B6880
:102CCC00FA681343FB607B681B68FA685A607B6880
:102CDC001B68144A934209D07B681B68B3F1804F80
:102CEC0004D07B681B68104A93420CD1BB6823F05C
:102CFC008003BB603B685B68BA681343BB607B684E
:102D0C001B68BA689A607B68012283F83D207B6857
:102D1C00002283F83C20002318461437BD4680BCA3
:102D2C00704700BF002C01400004004080B483B009
:102D3C0000AF786000BF0C37BD4680BC704780B4D4
:102D4C0083B000AF786000BF0C37BD4680BC7047C5
:102D5C0070B500260C4D0D4C641BA410A64209D175
:102D6C0000F022F800260A4D0A4C641BA410A6425F
:102D7C0005D170BD55F8043B98470136EEE755F880
:102D8C00043B98470136F2E7F02D0008F02D0008BF
:102D9C00F02D0008F42D000803460244934200D1A4
:102DAC00704703F8011BF9E7F8B500BFF8BC08BC85
:102DBC009E467047F8B500BFF8BC08BC9E467047ED
:102DCC0000000000000000000102030406070809CF
:102DDC0002030405060708090A0B0C0D0E0F101050
:042DEC0001020000E0
:042DF00031010008A5
:042DF4000D010008C5
:102DF80001000000010000000100000001000000C7
:102E080001000000010000000100000001000000B6
:102E180001000000010000000100000001000000A6
:102E2800F4010000F4010000F40100008813000020
:102E3800D0070000B80B00000100000015000000DA
:102E48000100000002000000010000000200000074
:102E580003000000040000000A00000000127A00CD
:082E6800100000000100000051
:040000050800176D6B
:00000001FF
