:020000040800F2
:10000000002800208D110008D50E0008DB0E000826
:10001000E10E0008E70E0008ED0E000800000000E9
:10002000000000000000000000000000F30E0008C7
:10003000FF0E0008000000000B0F0008170F00085B
:10004000D5110008D5110008D5110008D5110008F8
:10005000D5110008D5110008D5110008D5110008E8
:10006000D5110008D5110008D5110008D5110008D8
:10007000D5110008D5110008D5110008D5110008C8
:10008000D5110008D5110008D5110008D5110008B8
:10009000D5110008D5110008D5110008D5110008A8
:1000A000D5110008D5110008D5110008D511000898
:1000B000250F0008D511000800000000D511000828
:1000C000D51100080000000000000000D511000854
:1000D00000000000D5110008D51100080000000044
:1000E000D5110008D5110008D51100080000000046
:1000F0000000000000000000000000000000000000
:0C01000000000000000000005FF808F1A3
:10010C0010B5054C237833B9044B13B10448AFF345
:10011C0000800123237010BD6C0000200000000043
:10012C00D427000808B5034B1BB103490348AFF3B0
:10013C00008008BD0000000070000020D4270008DB
:10014C0080B483B000AF78607B68032B11D07B68E0
:10015C00032B12DC7B68012B03D07B68022B04D0B1
:10016C000BE0094B01221A6008E0084B01221A60CF
:10017C0004E0074B01221A6000E000BF00BF0C37FF
:10018C00BD4680BC704700BF880000208C0000205A
:10019C009000002080B500AF6B4B1B686B4A13605E
:1001AC006B4B1B68684A13604FF40051694801F0AF
:1001BC00F7FA03461A46664B1A60634B1A68644B8F
:1001CC001B689A422FD1604B1A68604B1B689A428D
:1001DC0029D15E4B1A68604B1B689A420FD05B4B5F
:1001EC001B685D4A13605C4B1B68002B1BD15B4B7F
:1001FC004FF4FA721A600120FFF7A2FF13E0574B7D
:10020C001B68013B554A1360544B1B68002B0AD1E9
:10021C00524B4FF4FA721A604F4B1B68002B02D1F1
:10022C000120FFF78DFF4E4B1B684E4A13604E4B5F
:10023C001B684B4A13604FF48041464801F0B0FAFA
:10024C0003461A46484B1A60454B1A68464B1B68C6
:10025C009A422FD1424B1A68424B1B689A4229D1C1
:10026C00404B1A68414B1B689A420FD03D4B1B68A0
:10027C003E4A13603D4B1B68002B1BD13C4B4FF48B
:10028C00FA721A600220FFF75BFF13E0384B1B6811
:10029C00013B374A1360364B1B68002B0AD1344B99
:1002AC004FF4FA721A60314B1B68002B02D10220FA
:1002BC00FFF746FF2F4B1B682F4A13602F4B1B6811
:1002CC002C4A13604FF40041224801F069FA0346AE
:1002DC001A462A4B1A60274B1A68284B1B689A42FD
:1002EC002FD1244B1A68244B1B689A4229D1224BDC
:1002FC001A68234B1B689A420FD01F4B1B68204A6D
:10030C0013601F4B1B68002B1BD11E4B4FF4FA7252
:10031C001A600320FFF714FF13E01A4B1B68013B14
:10032C00184A1360174B1B68002B0AD1154B4FF45E
:10033C00FA721A60124B1B68002B02D10320FFF7D4
:10034C00FFFE00BF80BD00BF04000020080000209D
:10035C0000000020001001400C00002030000020A4
:10036C001400002018000020100000201C000020A9
:10037C003400002024000020280000202000002051
:10038C002C0000203800002080B500AF614B1B68AA
:10039C00013B042B00F2B38001A252F823F000BF02
:1003AC00C10300085B04000887040008B3040008BC
:1003BC00DF04000801220221574801F008FA01224B
:1003CC000421554801F003FA01220821524801F09A
:1003DC00FEF901221021504801F0F9F901222021E7
:1003EC004D4801F0F4F9012240214B4801F0EFF99E
:1003FC0001228021484801F0EAF901224FF4807172
:10040C00454801F0E4F901224FF40071424801F033
:10041C00DEF901224FF480613F4801F0D8F9012246
:10042C004FF400613C4801F0D2F901224FF48051A5
:10043C00394801F0CCF9374B02221A600B2000F03E
:10044C0017FA364B1B68184600F072FC60E00B2064
:10045C0000F072FD324B1B68012B52D1304B002245
:10046C001A602C4B03221A600C2000F001FA2D4B61
:10047C001B68184600F05CFC43E00C2000F05CFDAF
:10048C00274B1B68012B3ED1254B00221A60214BB8
:10049C0004221A600D2000F0EBF9204B1B68184663
:1004AC0000F046FC2FE00D2000F046FD1C4B1B68B5
:1004BC00012B2AD11A4B00221A60164B05221A6006
:1004CC000E2000F0D5F9174B1B68184600F030FCD5
:1004DC001BE00E2000F030FD114B1B68012B16D1D8
:1004EC000F4B00221A600B4B02221A600B2000F0FB
:1004FC00BFF90A4B1B68184600F01AFC07E000BF56
:10050C0006E000BF04E000BF02E000BF00E000BF57
:10051C0000BF80BD480000200008014044000020BE
:10052C00980000204000002080B582B000AF7860B9
:10053C007B68002B25D100221021CC4801F047F913
:10054C0000222021C94801F042F900224021C7486D
:10055C0001F03DF900228021C44801F038F9002255
:10056C004FF48071C14801F032F900224FF4007150
:10057C00BE4801F02CF901224FF48061BB4801F018
:10058C0026F97B68012B25D101221021B74801F0F7
:10059C001EF900222021B54801F019F90022402152
:1005AC00B24801F014F901228021B04801F00FF992
:1005BC0001224FF48071AD4801F009F901224FF48A
:1005CC000071AA4801F003F901224FF48061A74899
:1005DC0001F0FDF87B68022B25D100221021A348E5
:1005EC0001F0F5F800222021A04801F0F0F80122DA
:1005FC0040219E4801F0EBF8002280219B4801F03D
:10060C00E6F800224FF48071984801F0E0F80122DE
:10061C004FF40071954801F0DAF800224FF4806134
:10062C00924801F0D4F87B68032B25D100221021CD
:10063C008E4801F0CCF8002220218C4801F0C7F83C
:10064C0000224021894801F0C2F80022802187480D
:10065C0001F0BDF801224FF48071844801F0B7F825
:10066C0001224FF40071814801F0B1F800224FF4DF
:10067C0080617E4801F0ABF87B68042B25D1012208
:10068C0010217A4801F0A3F800222021774801F0CC
:10069C009EF800224021754801F099F80122802132
:1006AC00724801F094F801224FF480716F4801F008
:1006BC008EF800224FF400716C4801F088F800228B
:1006CC004FF48061694801F082F87B68052B25D1D5
:1006DC0000221021654801F07AF80122202163489C
:1006EC0001F075F800224021604801F070F80022FA
:1006FC0080215E4801F06BF801224FF480715B4859
:10070C0001F065F800224FF40071584801F05FF8D1
:10071C0000224FF48061554801F059F87B68062B94
:10072C0025D100221021514801F051F8012220213D
:10073C004E4801F04CF8002240214C4801F047F89B
:10074C0000228021494801F042F800224FF48071C8
:10075C00464801F03CF800224FF40071434801F088
:10076C0036F800224FF48061404801F030F87B6885
:10077C00072B25D1002210213C4801F028F800223B
:10078C0020213A4801F023F800224021374801F09B
:10079C001EF801228021354801F019F801224FF48E
:1007AC008071324801F013F801224FF400712F4888
:1007BC0001F00DF801224FF480612C4801F007F88C
:1007CC007B68082B25D100221021284800F0FFFF60
:1007DC0000222021254800F0FAFF00224021234866
:1007EC0000F0F5FF00228021204800F0F0FF0022ED
:1007FC004FF480711D4800F0EAFF00224FF40071A5
:10080C001A4800F0E4FF00224FF48061174800F012
:10081C00DEFF7B68092B25D100221021134800F044
:10082C00D6FF00222021114800F0D1FF00224021E8
:10083C000E4800F0CCFF002280210C4800F0C7FFCE
:10084C0001224FF48071094800F0C1FF00224FF4DF
:10085C000071064800F0BBFF00224FF48061034892
:10086C0000F0B5FF00BF0837BD4680BD000C01404D
:10087C0080B584B000AF78600023FB607B680B3BD5
:10088C00032B5FD801A252F823F000BFA90800087F
:10089C00D3080008FD08000827090008894B1B68CD
:1008AC00894A82FB03129211DB17D31A874A136011
:1008BC00874B1B68844A82FB03129211DB17D31AF5
:1008CC00844A13603FE07F4B1B687F4A82FB031214
:1008DC009211DB17D31A7D4A13607F4B1B687A4A3F
:1008EC0082FB03129211DB17D31A7A4A13602AE0A7
:1008FC00774B1B68744A82FB03129211DB17D31AD5
:10090C00724A13606F4B1B686F4A82FB0312921181
:10091C00DB17D31A6F4A136015E06F4B1B686A4ADA
:10092C0082FB03129211DB17D31A684A1360654BD2
:10093C001B68654A82FB03129211DB17D31A654AB6
:10094C00136000E000BF614B1B68644A82FB03121A
:10095C009210DB17D31A624A13605C4B19685F4B19
:10096C0083FB01239A10CB17D21A13469B00134416
:10097C005B00CA1A5A4B5A60564B1B68574A82FB8B
:10098C0003129210DB17D31A554A9360514B196816
:10099C00524B83FB01239A10CB17D21A13469B00A0
:1009AC0013445B00CA1A4E4BDA604E4B1B68012B8A
:1009BC0040F08380FB68032B72D801A252F823F01D
:1009CC00DD090008110A0008450A0008790A000828
:1009DC0000220121444800F0FAFE01220221424883
:1009EC0000F0F5FE012204213F4800F0F0FE012248
:1009FC0008213D4800F0EBFE394B1B681846FFF709
:100A0C0093FD4EE001220121374800F0E0FE002268
:100A1C000221354800F0DBFE01220421324800F0AF
:100A2C00D6FE01220821304800F0D1FE2C4B5B6829
:100A3C001846FFF779FD34E0012201212A4800F025
:100A4C00C6FE01220221284800F0C1FE002204212A
:100A5C00254800F0BCFE01220821234800F0B7FE17
:100A6C001F4B9B681846FFF75FFD1AE0012201211E
:100A7C001D4800F0ACFE012202211B4800F0A7FE2D
:100A8C0001220421184800F0A2FE00220821164879
:100A9C0000F09DFE124BDB681846FFF745FD00E0A9
:100AAC0000BFFB680133FB60FB68032B01DD0023F7
:100ABC00FB604FF47A7000F055F900BF1037BD465B
:100ACC0080BD00BF3C000020D34D6210AC00002064
:100ADC0044000020B00000204000002067666666DD
:100AEC004C000020A8000020000C014080B500AF95
:100AFC0000F06CFB00F010F800F096F800F048F8ED
:100B0C00044801F0A9FA642000F012F9FFF73CFC4C
:100B1C00FCE700BFB400002080B590B000AF07F137
:100B2C00180328220021184601F046FE3B1D002226
:100B3C001A605A609A60DA601A610223BB61012361
:100B4C00BB621023FB6200237B6307F1180318467A
:100B5C0000F056FE0346002B01D000F0E3F80F2303
:100B6C007B600023BB600023FB6000233B61002300
:100B7C007B613B1D0021184601F0C2F80346002B97
:100B8C0001D000F0CFF800BF4037BD4680BD00005B
:100B9C0080B586B000AF07F1080300221A605A60D6
:100BAC009A60DA603B4600221A605A601D4B4FF087
:100BBC0080421A601B4B41F63F725A60194B00225F
:100BCC009A60184B0922DA60164B00221A61154BF9
:100BDC0000229A61134801F0EFF90346002B01D073
:100BEC0000F0A0F84FF48053BB6007F108031946DE
:100BFC000C4801F06DFB0346002B01D000F092F87D
:100C0C0000233B6000237B603B461946054801F0FE
:100C1C0045FD0346002B01D000F084F800BF1837C7
:100C2C00BD4680BDB400002080B588B000AF07F190
:100C3C00100300221A605A609A60DA602F4B9B698D
:100C4C002E4A43F0100393612C4B9B6903F0100365
:100C5C00FB60FB68294B9B69284A43F004039361B2
:100C6C00264B9B6903F00403BB60BB68234B9B6959
:100C7C00224A43F008039361204B9B6903F008035D
:100C8C007B607B68002241F6FE711D4800F09FFDE1
:100C9C00002240F6FF711B4800F099FD4FF46043B1
:100CAC003B6100237B610123BB6107F110031946F3
:100CBC00154800F0FBFB41F6FE733B6101237B61A1
:100CCC000023BB610223FB6107F1100319460C489A
:100CDC0000F0ECFB40F6FF733B6101237B610023CA
:100CEC00BB610223FB6107F110031946054800F0B4
:100CFC00DDFB00BF2037BD4680BD00BF00100240A9
:100D0C0000080140000C01400010014080B582B089
:100D1C0000AF786000F040F8FFF73CFA00BF0837EE
:100D2C00BD4680BD80B400AF72B600BFFEE70000C8
:100D3C0080B483B000AF7860074B1B687A6892FB75
:100D4C00F3F3064A1360064B00221A6000BF0C37FF
:100D5C00BD4680BC704700BF5C00002094000020A2
:100D6C009800002080B483B000AF7860074B1B68FC
:100D7C007A6892FBF3F3064A1360064B00221A6062
:100D8C0000BF0C37BD4680BC704700BF5C00002024
:100D9C00A4000020A800002080B400AF194B1B68F1
:100DAC00002B0BDD174B1B68013B164A1360154BD0
:100DBC001B68002B02DC144B01221A60134B1B68BE
:100DCC00002B0BDD114B1B68013B104A13600F4BC2
:100DDC001B68002B02DC0E4B01221A600D4B1B68AA
:100DEC00002B0BDD0B4B1B68013B0A4A1360094BB4
:100DFC001B68002B02DC084B01221A6000BFBD46A9
:100E0C0080BC704794000020980000209C000020BB
:100E1C00A0000020A4000020A800002080B485B011
:100E2C0000AF154B9B69144A43F001039361124BBD
:100E3C009B6903F00103BB60BB680F4BDB690E4A77
:100E4C0043F08053D3610C4BDB6903F080537B6020
:100E5C007B680A4B5B68FB60FB6823F0E063FB601C
:100E6C00FB6843F00073FB60044AFB68536000BFEF
:100E7C001437BD4680BC7047001002400000014092
:100E8C0080B584B000AF78607B681B68B3F1804F8D
:100E9C0013D10C4BDB690B4A43F00103D361094BB3
:100EAC00DB6903F00103FB60FB68002200211C20BE
:100EBC0000F0C5FA1C2000F0DEFA00BF1037BD466A
:100ECC0080BD00BF0010024080B400AFFEE780B4CC
:100EDC0000AFFEE780B400AFFEE780B400AFFEE7E2
:100EEC0080B400AFFEE780B400AF00BFBD4680BC4D
:100EFC00704780B400AF00BFBD4680BC704780B463
:100F0C0000AF00BFBD4680BC704780B500AF00F09D
:100F1C00A3F900BF80BD000080B500AF024801F00E
:100F2C00E7F800BF80BD00BFB400002080B400AF64
:100F3C0000BFBD4680BC704780B582B000AF786002
:100F4C007B680B3B032B00F2138101A252F823F0B8
:100F5C006D0F0008F10F000875100008F91000085B
:100F6C0000220221854800F032FC00220421834833
:100F7C0000F02DFC01220821804800F028FC012201
:100F8C0010217E4800F023FC012220217B4800F038
:100F9C001EFC01224021794800F019FC002280211E
:100FAC00764800F014FC00224FF48071734800F076
:100FBC000EFC01224FF40071704800F008FC012275
:100FCC004FF480616D4800F002FC01224FF4006187
:100FDC006A4800F0FCFB01224FF48051674800F096
:100FEC00F6FBC6E000220221644800F0F0FB01226F
:100FFC000421624800F0EBFB002208215F4800F05E
:10100C00E6FB012210215D4800F0E1FB01222021CA
:10101C005A4800F0DCFB01224021584800F0D7FB75
:10102C0000228021554800F0D2FB01224FF4807140
:10103C00524800F0CCFB00224FF400714F4800F0F6
:10104C00C6FB01224FF480614C4800F0C0FB01222A
:10105C004FF40061494800F0BAFB01224FF4805173
:10106C00464800F0B4FB84E001220221434800F022
:10107C00AEFB01220421414800F0A9FB012208210A
:10108C003E4800F0A4FB002210213C4800F09FFBDE
:10109C0000222021394800F09AFB012240213748D8
:1010AC0000F095FB01228021344800F090FB0122D6
:1010BC004FF48071314800F08AFB01224FF400712B
:1010CC002E4800F084FB00224FF480612B4800F086
:1010DC007EFB00224FF40061284800F078FB0122CF
:1010EC004FF48051254800F072FB42E001220221AE
:1010FC00224800F06CFB01220421204800F067FB21
:10110C00012208211D4800F062FB002210211B481F
:10111C0000F05DFB01222021184800F058FB002252
:10112C004021164800F053FB01228021134800F0A7
:10113C004EFB01224FF48071104800F048FB012255
:10114C004FF400710D4800F042FB00224FF4806117
:10115C000A4800F03CFB01224FF40061074800F004
:10116C0036FB00224FF48051044800F030FB00E0C5
:10117C0000BF00BF0837BD4680BD00BF000801405E
:10118C00FFF7D4FE0B480C490C4A002302E0D4585C
:10119C00C4500433C4188C42F9D3094A094C0023B7
:1011AC0001E013600432A242FBD301F0E1FAFFF735
:1011BC009DFC7047000000206C00002018280008DF
:1011CC006C00002000010020FEE7000080B500AF9D
:1011DC00084B1B68074A43F010031360032000F010
:1011EC0023F90F2000F008F8FFF718FE002318462B
:1011FC0080BD00BF0020024080B582B000AF786097
:10120C00124B1A68124B1B7819464FF47A73B3FBC6
:10121C00F1F3B2FBF3F3184600F03BF90346002B55
:10122C0001D001230EE07B680F2B0AD800227968CD
:10123C004FF0FF3000F003F9064A7B68136000237F
:10124C0000E0012318460837BD4680BD6000002031
:10125C00680000206400002080B400AF054B1B78B0
:10126C001A46054B1B681344034A136000BFBD4666
:10127C0080BC704768000020FC00002080B400AFE8
:10128C00024B1B681846BD4680BC7047FC00002012
:10129C0080B485B000AF78607B6803F00703FB6017
:1012AC000C4BDB68BB60BA684FF6FF031340BB60A6
:1012BC00FB681A02BB68134343F0BF6343F400336B
:1012CC00BB60044ABB68D36000BF1437BD4680BC0A
:1012DC00704700BF00ED00E080B400AF044BDB684A
:1012EC001B0A03F007031846BD4680BC704700BFBD
:1012FC0000ED00E080B483B000AF0346FB7197F9BA
:10130C000730002B0BDBFB7903F01F02064997F922
:10131C0007305B09012000FA02F241F8232000BFDC
:10132C000C37BD4680BC704700E100E080B483B050
:10133C0000AF03463960FB7197F90730002B0ADBCD
:10134C003B68DAB20C4997F907301201D2B20B4460
:10135C0083F800230AE03B68DAB20849FB7903F012
:10136C000F03043B1201D2B20B441A7600BF0C37A8
:10137C00BD4680BC704700BF00E100E000ED00E01E
:10138C0080B489B000AFF860B9607A60FB6803F094
:10139C000703FB61FB69C3F10703042B28BF04237C
:1013AC00BB61FB690433062B02D9FB69033B00E0EC
:1013BC0000237B614FF0FF32BB6902FA03F3DA437F
:1013CC00BB681A407B699A404FF0FF317B6901FA88
:1013DC0003F3D9437B680B40134318462437BD46AF
:1013EC0080BC704780B582B000AF78607B68013BF1
:1013FC00B3F1807F01D301230FE00A4A7B68013BE4
:10140C0053600F214FF0FF30FFF790FF054B002288
:10141C009A60044B07221A60002318460837BD4611
:10142C0080BD00BF10E000E080B582B000AF7860F6
:10143C007868FFF72DFF00BF0837BD4680BD80B52B
:10144C0086B000AF0346B9607A60FB7300237B6102
:10145C00FFF742FF78617A68B9687869FFF790FF07
:10146C00024697F90F3011461846FFF75FFF00BF91
:10147C001837BD4680BD80B582B000AF0346FB7106
:10148C0097F907301846FFF735FF00BF0837BD4600
:10149C0080BD80B582B000AF78607868FFF7A2FF9E
:1014AC00034618460837BD4680BD000080B48BB09B
:1014BC0000AF7860396000237B6200233B6248E117
:1014CC0001227B6A02FA03F3FB613B681B68FA6931
:1014DC001340BB61BA69FB699A4240F037813B68A3
:1014EC005B68A34A93425ED0A14A934275D8A14A45
:1014FC00934258D09F4A93426FD89F4A934252D0FE
:10150C009D4A934269D89D4A93424CD09B4A934240
:10151C0063D89B4A934246D0994A93425DD8122B8A
:10152C002AD8122B59D801A252F823F0B31500086F
:10153C008D1500089F150008E1150008E715000837
:10154C00E7150008E7150008E7150008E71500087F
:10155C00E7150008E7150008E7150008E71500086F
:10156C00E7150008E7150008E7150008E71500085F
:10157C0095150008A9150008824A934213D02CE057
:10158C003B68DB683B6229E03B68DB6804333B6209
:10159C0024E03B68DB6808333B621FE03B68DB6898
:1015AC000C333B621AE03B689B68002B02D104238E
:1015BC003B6213E03B689B68012B05D108233B621F
:1015CC007B68FA691A6109E008233B627B68FA6957
:1015DC005A6103E000233B6200E000BFBB69FF2BB4
:1015EC0001D87B6801E07B6804337B61BB69FF2B0E
:1015FC0002D87B6A9B0002E07B6A083B9B003B6144
:10160C007B691A680F213B6901FA03F3DB431A402B
:10161C00396A3B6901FA03F31A437B691A603B6828
:10162C005B6803F08053002B00F09080564B9B6955
:10163C00554A43F001039361534B9B6903F001033B
:10164C00BB60BB68514A7B6A9B08023352F823305B
:10165C00FB607B6A03F003039B000F2202FA03F387
:10166C00DB43FA681340FB607B68494A93420DD018
:10167C007B68484A934207D07B68474A934201D122
:10168C00022304E0032302E0012300E000237A6A32
:10169C0002F0030292009340FA681343FB603B494B
:1016AC007B6A9B080233FA6841F823203B685B682D
:1016BC0003F48013002B06D0384B9A683749BB696A
:1016CC0013438B6006E0354B9A68BB69DB433349A7
:1016DC0013408B603B685B6803F40013002B06D04F
:1016EC002E4BDA682D49BB691343CB6006E02B4BBC
:1016FC00DA68BB69DB4329491340CB603B685B6804
:10170C0003F40033002B06D0244B5A682349BB69E1
:10171C0013434B6006E0214B5A68BB69DB431F49FE
:10172C0013404B603B685B6803F48033002B06D09E
:10173C001A4B1A681949BB6913430B6006E0174B27
:10174C001A68BB69DB43154913400B607B6A013394
:10175C007B623B681A687B6A22FA03F3002B7FF4E6
:10176C00AFAE00BF00BF2C37BD4680BC704700BF7A
:10177C000000321000003110000022100000211077
:10178C000000121000001110001002400000014077
:10179C0000080140000C0140001001400004014011
:1017AC0080B485B000AF78600B467B807B689A680C
:1017BC007B881340002B02D00123FB7301E0002334
:1017CC00FB73FB7B18461437BD4680BC704780B456
:1017DC0083B000AF78600B467B8013467B707B78C0
:1017EC00002B03D07A887B681A6103E07B881A048B
:1017FC007B681A6100BF0C37BD4680BC7047000087
:10180C0080B586B000AF78607B68002B01D10123D6
:10181C006CE27B681B6803F00103002B00F08780EF
:10182C00924B5B6803F00C03042B0CD08F4B5B6862
:10183C0003F00C03082B12D18C4B5B6803F4803340
:10184C00B3F5803F0BD1894B1B6803F40033002B9D
:10185C006CD07B685B68002B68D1012346E27B6807
:10186C005B68B3F5803F06D1804B1B687F4A43F41D
:10187C00803313602EE07B685B68002B0CD17B4BB4
:10188C001B687A4A23F480331360784B1B68774AC1
:10189C0023F4802313601DE07B685B68B3F5A02FF5
:1018AC000CD1724B1B68714A43F4802313606F4B4D
:1018BC001B686E4A43F4803313600BE06B4B1B6860
:1018CC006A4A23F480331360684B1B68674A23F41D
:1018DC00802313607B685B68002B13D0FFF7CEFC72
:1018EC00386108E0FFF7CAFC02463B69D31A642B47
:1018FC0001D90323FAE15D4B1B6803F40033002B81
:10190C00F0D014E0FFF7BAFC386108E0FFF7B6FC42
:10191C0002463B69D31A642B01D90323E6E1534BEE
:10192C001B6803F40033002BF0D100E000BF7B6890
:10193C001B6803F00203002B63D04C4B5B6803F075
:10194C000C03002B0BD0494B5B6803F00C03082BEA
:10195C001CD1464B5B6803F48033002B16D1434BF0
:10196C001B6803F00203002B05D07B681B69012B5D
:10197C0001D00123BAE13D4B1B6823F0F8027B68D0
:10198C005B69DB00394913430B603AE07B681B69E8
:10199C00002B20D0364B01221A60FFF76FFC386108
:1019AC0008E0FFF76BFC02463B69D31A022B01D906
:1019BC0003239BE12D4B1B6803F00203002BF0D09B
:1019CC002A4B1B6823F0F8027B685B69DB00274914
:1019DC0013430B6015E0264B00221A60FFF74EFCF8
:1019EC00386108E0FFF74AFC02463B69D31A022B28
:1019FC0001D903237AE11D4B1B6803F00203002B72
:101A0C00F0D17B681B6803F00803002B3AD07B688D
:101A1C009B69002B19D0174B01221A60FFF72EFC83
:101A2C00386108E0FFF72AFC02463B69D31A022B07
:101A3C0001D903235AE10D4B5B6A03F00203002B1F
:101A4C00F0D0012000F09AFA1CE00A4B00221A6038
:101A5C00FFF714FC38610FE0FFF710FC02463B69FE
:101A6C00D31A022B08D9032340E100BF0010024017
:101A7C0000004242800442429E4B5B6A03F0020328
:101A8C00002BE9D17B681B6803F00403002B00F0EA
:101A9C00A6800023FB75974BDB6903F08053002B6A
:101AAC000DD1944BDB69934A43F08053D361914B36
:101ABC00DB6903F08053BB60BB680123FB758E4B65
:101ACC001B6803F48073002B18D18B4B1B688A4A5C
:101ADC0043F480731360FFF7D1FB386108E0FFF724
:101AEC00CDFB02463B69D31A642B01D90323FDE0DD
:101AFC00814B1B6803F48073002BF0D07B68DB6890
:101B0C00012B06D17B4B1B6A7A4A43F0010313620B
:101B1C002DE07B68DB68002B0CD1764B1B6A754A79
:101B2C0023F001031362734B1B6A724A23F0040304
:101B3C0013621CE07B68DB68052B0CD16D4B1B6AB8
:101B4C006C4A43F0040313626A4B1B6A694A43F004
:101B5C00010313620BE0674B1B6A664A23F0010317
:101B6C001362644B1B6A634A23F0040313627B68A1
:101B7C00DB68002B15D0FFF781FB38610AE0FFF71B
:101B8C007DFB02463B69D31A41F28832934201D95C
:101B9C000323ABE0574B1B6A03F00203002BEED080
:101BAC0014E0FFF76BFB38610AE0FFF767FB0246B6
:101BBC003B69D31A41F28832934201D9032395E051
:101BCC004C4B1B6A03F00203002BEED1FB7D012B67
:101BDC0005D1484BDB69474A23F08053D3617B68BE
:101BEC00DB69002B00F08180424B5B6803F00C0337
:101BFC00082B61D07B68DB69022B46D13F4B00225E
:101C0C001A60FFF73BFB386108E0FFF737FB024631
:101C1C003B69D31A022B01D9032367E0354B1B68B0
:101C2C0003F00073002BF0D17B681B6AB3F5803F87
:101C3C0008D1304B5B6823F400327B689B682D49DC
:101C4C0013434B602B4B5B6823F474127B68196A4B
:101C5C007B685B6A0B43274913434B60274B01227C
:101C6C001A60FFF70BFB386108E0FFF707FB024631
:101C7C003B69D31A022B01D9032337E01D4B1B6898
:101C8C0003F00073002BF0D02FE01C4B00221A60E5
:101C9C00FFF7F4FA386108E0FFF7F0FA02463B6907
:101CAC00D31A022B01D9032320E0124B1B6803F03B
:101CBC000073002BF0D118E07B68DB69012B01D19C
:101CCC00012313E00B4B5B68FB60FB6803F4803271
:101CDC007B681B6A9A4206D1FB6803F470127B681E
:101CEC005B6A9A4201D0012300E0002318461837A2
:101CFC00BD4680BD001002400070004060004242B2
:101D0C0080B584B000AF786039607B68002B01D15E
:101D1C000123D0E06A4B1B6803F007033A689A4230
:101D2C0010D9674B1B6823F0070265493B681343C6
:101D3C000B60634B1B6803F007033A689A4201D0AF
:101D4C000123B8E07B681B6803F00203002B20D052
:101D5C007B681B6803F00403002B05D0594B5B68B0
:101D6C00584A43F4E06353607B681B6803F0080334
:101D7C00002B05D0534B5B68524A43F460535360BD
:101D8C00504B5B6823F0F0027B689B684D49134312
:101D9C004B607B681B6803F00103002B40D07B6811
:101DAC005B68012B07D1474B1B6803F40033002BF6
:101DBC0015D101237FE07B685B68022B07D1414B77
:101DCC001B6803F00073002B09D1012373E03D4B1A
:101DDC001B6803F00203002B01D101236BE0394B8C
:101DEC005B6823F003027B685B68364913434B60E6
:101DFC00FFF744FAF8600AE0FFF740FA0246FB6886
:101E0C00D31A41F28832934201D9032353E02D4B6C
:101E1C005B6803F00C027B685B689B009A42EBD119
:101E2C00274B1B6803F007033A689A4210D2244BE5
:101E3C001B6823F0070222493B6813430B60204BBD
:101E4C001B6803F007033A689A4201D0012332E081
:101E5C007B681B6803F00403002B08D0194B5B68EC
:101E6C0023F4E0627B68DB68164913434B607B68A4
:101E7C001B6803F00803002B09D0124B5B6823F49A
:101E8C0060527B681B69DB000E4913434B6000F00A
:101E9C0021F802460B4B5B681B0903F00F030A4940
:101EAC00CB5C22FA03F3094A1360094B1B681846F2
:101EBC00FFF7A2F9002318461037BD4680BD00BFBE
:101ECC000020024000100240EC27000860000020B7
:101EDC006400002080B487B000AF0023FB600023B7
:101EEC00BB6000237B6100237B6000233B611E4BA6
:101EFC005B68FB60FB6803F00C03042B02D0082B1F
:101F0C0003D027E0194B3B6127E0FB689B0C03F0E7
:101F1C000F03174AD35C7B60FB6803F48033002B00
:101F2C0010D0114B5B685B0C03F00103114AD35CBE
:101F3C00BB607B680D4A02FB03F2BB68B2FBF3F398
:101F4C007B6104E07B680C4A02FB03F37B617B69D9
:101F5C003B6102E0054B3B6100BF3B6918461C37F7
:101F6C00BD4680BC704700BF0010024000127A00D2
:101F7C00FC2700080C28000800093D0080B485B03F
:101F8C0000AF78600A4B1B680A4AA2FB03235B0A6A
:101F9C007A6802FB03F3FB6000BFFB685A1EFA6011
:101FAC00002BF9D100BF00BF1437BD4680BC704771
:101FBC0060000020D34D621080B582B000AF786015
:101FCC007B68002B01D1012341E07B6893F83D3005
:101FDC00DBB2002B06D17B68002283F83C207868AA
:101FEC00FEF74EFF7B68022283F83D207B681A685F
:101FFC007B6804331946104600F056FA7B680122C0
:10200C0083F846207B68012283F83E207B680122FE
:10201C0083F83F207B68012283F840207B680122F3
:10202C0083F841207B68012283F842207B680122DF
:10203C0083F843207B68012283F844207B680122CB
:10204C0083F845207B68012283F83D200023184645
:10205C000837BD4680BD000080B485B000AF786005
:10206C007B6893F83D30DBB2012B01D0012335E0C6
:10207C007B68022283F83D207B681B68DA687B68EA
:10208C001B6842F00102DA607B681B68164A9342B7
:10209C0009D07B681B68B3F1804F04D07B681B6848
:1020AC00124A934211D17B681B689B6803F00703AB
:1020BC00FB60FB68062B10D07B681B681A687B687A
:1020CC001B6842F001021A6007E07B681B681A6803
:1020DC007B681B6842F001021A6000231846143713
:1020EC00BD4680BC704700BF002C0140000400407E
:1020FC0080B584B000AF78607B681B68DB68FB60E0
:10210C007B681B681B69BB60BB6803F00203002B78
:10211C0020D0FB6803F00203002B1BD07B681B68EC
:10212C006FF002021A617B6801221A777B681B68C8
:10213C009B6903F00303002B03D0786800F098F937
:10214C0005E0786800F08BF9786800F09AF97B6804
:10215C0000221A77BB6803F00403002B20D0FB6825
:10216C0003F00403002B1BD07B681B686FF0040288
:10217C001A617B6802221A777B681B689B6903F4DF
:10218C004073002B03D0786800F072F905E0786892
:10219C0000F065F9786800F074F97B6800221A7712
:1021AC00BB6803F00803002B20D0FB6803F0080386
:1021BC00002B1BD07B681B686FF008021A617B68D0
:1021CC0004221A777B681B68DB6903F00303002B7E
:1021DC0003D0786800F04CF905E0786800F03FF91E
:1021EC00786800F04EF97B6800221A77BB6803F020
:1021FC001003002B20D0FB6803F01003002B1BD026
:10220C007B681B686FF010021A617B6808221A77D2
:10221C007B681B68DB6903F44073002B03D0786880
:10222C0000F026F905E0786800F019F9786800F0FC
:10223C0028F97B6800221A77BB6803F00103002B96
:10224C000CD0FB6803F00103002B07D07B681B68E4
:10225C006FF001021A617868FEF758FDBB6803F055
:10226C008003002B0CD0FB6803F08003002B07D0FD
:10227C007B681B686FF080021A61786800F06FFA57
:10228C00BB6803F04003002B0CD0FB6803F0400349
:10229C00002B07D07B681B686FF040021A617868CE
:1022AC0000F0F8F8BB6803F02003002B0CD0FB689F
:1022BC0003F02003002B07D07B681B686FF0200213
:1022CC001A61786800F042FA00BF1037BD4680BD35
:1022DC0080B584B000AF786039600023FB737B68F5
:1022EC0093F83C30012B01D10223B4E07B6801222E
:1022FC0083F83C207B68022283F83D207B681B68B6
:10230C009B68BB60BB6823F07703BB60BB6823F49E
:10231C007F43BB607B681B68BA689A603B681B682C
:10232C00B3F5005F3ED0B3F5005F00F28780B3F5E4
:10233C00805F00F08680B3F5805F7FD8702B1AD059
:10234C00702B7BD8602B50D0602B77D8502B3CD087
:10235C00502B73D8402B58D0402B6FD8302B64D0D7
:10236C00302B6BD8202B60D0202B67D8002B5CD067
:10237C00102B5AD062E07B6818683B6899683B6800
:10238C005A683B68DB6800F06AF97B681B689B68DD
:10239C00BB60BB6843F07703BB607B681B68BA68A3
:1023AC009A604FE07B6818683B6899683B685A688C
:1023BC003B68DB6800F053F97B681B689A687B68A4
:1023CC001B6842F480429A603CE07B6818683B686A
:1023DC0059683B68DB681A4600F0CAF87B681B68D2
:1023EC005021184600F021F92CE07B6818683B68F6
:1023FC0059683B68DB681A4600F0E8F87B681B6894
:10240C006021184600F011F91CE07B6818683B68E5
:10241C0059683B68DB681A4600F0AAF87B681B68B1
:10242C004021184600F001F90CE07B681A683B6803
:10243C001B681946104600F0F8F803E00123FB7303
:10244C0000E000BF7B68012283F83D207B680022FE
:10245C0083F83C20FB7B18461037BD4680BD80B40A
:10246C0083B000AF786000BF0C37BD4680BC7047AE
:10247C0080B483B000AF786000BF0C37BD4680BC21
:10248C00704780B483B000AF786000BF0C37BD4696
:10249C0080BC704780B483B000AF786000BF0C374D
:1024AC00BD4680BC7047000080B485B000AF78603A
:1024BC0039607B681B68FB607B682B4A934207D0B2
:1024CC007B68B3F1804F03D07B68284A934208D1D4
:1024DC00FB6823F07003FB603B685B68FA6813438E
:1024EC00FB607B68204A934207D07B68B3F1804F36
:1024FC0003D07B681D4A934208D1FB6823F44073D8
:10250C00FB603B68DB68FA681343FB60FB6823F0F5
:10251C0080023B685B691343FB607B68FA681A6056
:10252C003B689A687B68DA623B681A687B689A62D7
:10253C007B680D4A934203D13B681A697B681A6326
:10254C007B6801225A617B681B6903F00103002B35
:10255C0005D07B681B6923F001027B681A6100BF00
:10256C001437BD4680BC7047002C0140000400406D
:10257C0080B487B000AFF860B9607A60FB681B6A02
:10258C007B61FB681B6A23F00102FB681A62FB6823
:10259C009B693B613B6923F0F0033B617B681B014A
:1025AC003A6913433B617B6923F00A037B617A69C7
:1025BC00BB6813437B61FB683A699A61FB687A6973
:1025CC001A6200BF1C37BD4680BC704780B487B010
:1025DC0000AFF860B9607A60FB681B6A7B61FB68CE
:1025EC001B6A23F01002FB681A62FB689B693B6153
:1025FC003B6923F470433B617B681B033A691343CB
:10260C003B617B6923F0A0037B61BB681B017A698A
:10261C0013437B61FB683A699A61FB687A691A62B9
:10262C0000BF1C37BD4680BC704780B485B000AF7E
:10263C00786039607B689B68FB60FB6823F07003F3
:10264C00FB603A68FB68134343F00703FB607B684D
:10265C00FA689A6000BF1437BD4680BC704780B4DE
:10266C0087B000AFF860B9607A603B60FB689B682C
:10267C007B617B6923F47F437B613B681A027B6837
:10268C001A43BB6813437A6913437B61FB687A690D
:10269C009A6000BF1C37BD4680BC704780B485B0C3
:1026AC0000AF786039607B6893F83C30012B01D126
:1026BC00022341E07B68012283F83C207B680222E4
:1026CC0083F83D207B681B685B68FB607B681B683C
:1026DC009B68BB60FB6823F07003FB603B681B6866
:1026EC00FA681343FB607B681B68FA685A607B6866
:1026FC001B68144A934209D07B681B68B3F1804F66
:10270C0004D07B681B68104A93420CD1BB6823F041
:10271C008003BB603B685B68BA681343BB607B6833
:10272C001B68BA689A607B68012283F83D207B683D
:10273C00002283F83C20002318461437BD4680BC89
:10274C00704700BF002C01400004004080B483B0EF
:10275C0000AF786000BF0C37BD4680BC704780B4BA
:10276C0083B000AF786000BF0C37BD4680BC7047AB
:10277C0070B500260C4D0D4C641BA410A64209D15B
:10278C0000F022F800260A4D0A4C641BA410A64245
:10279C0005D170BD55F8043B98470136EEE755F866
:1027AC00043B98470136F2E710280008102800086F
:1027BC00102800081428000803460244934200D154
:1027CC00704703F8011BF9E7F8B500BFF8BC08BC6B
:1027DC009E467047F8B500BFF8BC08BC9E467047D3
:1027EC0000000000000000000102030406070809B5
:1027FC0002030405060708090A0B0C0D0E0F101036
:04280C0001020000C5
:04281000310100088A
:042814000D010008AA
:1028180001000000010000000100000001000000AC
:10282800010000000100000001000000010000009C
:10283800010000000100000001000000010000008C
:10284800F4010000F4010000F40100008813000006
:10285800D0070000B80B00000100000001000000D4
:102868000200000003000000040000000A0000004D
:0C28780000127A001000000001000000B7
:040000050800118D51
:00000001FF
