:020000040800F2
:1000000000280020D5180008811400088714000873
:100010008D140008931400089914000800000000D3
:100020000000000000000000000000009F14000815
:10003000AB14000800000000B7140008C314000847
:100040001D1900081D1900081D1900081D190008B8
:100050001D1900081D1900081D1900081D190008A8
:100060001D1900081D1900081D1900081D19000898
:100070001D1900081D1900081D1900081D19000888
:100080001D1900081D1900081D1900081D19000878
:100090001D1900081D1900081D1900081D19000868
:1000A0001D1900081D1900081D1900081D19000858
:1000B000D11400081D190008000000001D190008D7
:1000C0001D19000800000000000000001D190008B4
:1000D000000000001D1900081D19000800000000A4
:1000E0001D1900081D1900081D1900080000000056
:1000F0000000000000000000000000000000000000
:0C01000000000000000000005FF808F1A3
:10010C0010B5054C237833B9044B13B10448AFF345
:10011C0000800123237010BD880000200000000027
:10012C004C2F000808B5034B1BB103490348AFF330
:10013C00008008BD000000008C0000204C2F00083F
:10014C0080B400AF064B1B68012B04D1044B00227A
:10015C001A60012300E000231846BD4680BC70479E
:10016C00A800002080B400AF064B1B68012B04D103
:10017C00044B00221A60012300E000231846BD4600
:10018C0080BC7047AC00002080B483B000AF7860B6
:10019C007B68032B11D07B68032B12DC7B68012B53
:1001AC0003D07B68022B04D00BE0094B01221A60B0
:1001BC0008E0084B01221A6004E0074B01221A6088
:1001CC0000E000BF00BF0C37BD4680BC704700BFCD
:1001DC00A4000020A8000020AC00002080B500AFD7
:1001EC006B4B1B686B4A13606B4B1B68684A136044
:1001FC004FF40051694801F077FE03461A46664BEE
:10020C001A60634B1A68644B1B689A422FD1604B7F
:10021C001A68604B1B689A4229D15E4B1A68604B76
:10022C001B689A420FD05B4B1B685D4A13605C4B9A
:10023C001B68002B1BD15B4B4FF4FA721A60012028
:10024C00FFF7A2FF13E0574B1B68013B554A1360A5
:10025C00544B1B68002B0AD1524B4FF4FA721A60A4
:10026C004F4B1B68002B02D10120FFF78DFF4E4B2B
:10027C001B684E4A13604E4B1B684B4A13604FF47D
:10028C008041464801F030FE03461A46484B1A603E
:10029C00454B1A68464B1B689A422FD1424B1A6841
:1002AC00424B1B689A4229D1404B1A68414B1B6840
:1002BC009A420FD03D4B1B683E4A13603D4B1B6866
:1002CC00002B1BD13C4B4FF4FA721A600220FFF743
:1002DC005BFF13E0384B1B68013B374A1360364B0E
:1002EC001B68002B0AD1344B4FF4FA721A60314B55
:1002FC001B68002B02D10220FFF746FF2F4B1B6817
:10030C002F4A13602F4B1B682C4A13604FF400418B
:10031C00224801F0E9FD03461A462A4B1A60274B86
:10032C001A68284B1B689A422FD1244B1A68244B0D
:10033C001B689A4229D1224B1A68234B1B689A429C
:10034C000FD01F4B1B68204A13601F4B1B68002BE0
:10035C001BD11E4B4FF4FA721A600320FFF714FFE7
:10036C0013E01A4B1B68013B184A1360174B1B68B0
:10037C00002B0AD1154B4FF4FA721A60124B1B6802
:10038C00002B02D10320FFF7FFFE00BF80BD00BF92
:10039C000400002008000020000000200010014094
:1003AC000C00002030000020140000201800002059
:1003BC00100000201C00002034000020240000202D
:1003CC0028000020200000202C00002038000020F5
:1003DC0080B500AFB14B1B68013B042B00F252817E
:1003EC0001A252F823F000BF09040008CD04000854
:1003FC0035050008B1050008170600080122022186
:10040C00A74801F088FD01220421A54801F083FDD5
:10041C0001220821A24801F07EFD01221021A048F2
:10042C0001F079FD012220219D4801F074FD01228B
:10043C0040219B4801F06FFD01228021984801F07A
:10044C006AFD01224FF48071954801F064FD012290
:10045C004FF40071924801F05EFD01224FF480616F
:10046C008F4801F058FD01224FF400618C4801F0D7
:10047C0052FD01224FF48051894801F04CFD874B0D
:10048C0002221A60874B1B68874A82FB0312921167
:10049C00DB17D31A854A1360854B1B68824A82FB93
:1004AC0003129211DB17D31A824A136000F09EFBE1
:1004BC004FF47A7000F0E4FE962000F0FBFEEAE0C8
:1004CC000B2001F00FF800F0D1FB7B4B1B68012BCC
:1004DC0010D1794B00221A60744B1B68013B734A94
:1004EC001360744B1B68013B724A13604FF47A70B3
:1004FC0000F0C6FE6F4B1B68002B40F0C580674BAD
:10050C0003221A606D4B1B68674A82FB031292111F
:10051C00DB17D31A674A13604FF47A7000F0B0FE01
:10052C00962000F0C7FEAFE00C2000F0DBFF00F0DF
:10053C009DFB614B1B68012B10D15F4B00221A6095
:10054C005A4B1B68013B594A13605A4B1B68013BC1
:10055C00584A13604FF47A7000F092FE554B1B68AA
:10056C00002B40F093804D4B04221A60504B1B68BB
:10057C004D4A82FB03129211DB17D31A4B4A1360BC
:10058C00484B1B68484A82FB03129211DB17D31AA3
:10059C00484A13604FF47A7000F072FE962000F017
:1005AC0089FE73E00D2000F09DFF00F05FFB424BD5
:1005BC001B68012B10D1404B00221A603B4B1B686F
:1005CC00013B3A4A13603B4B1B68013B394A1360B1
:1005DC004FF47A7000F054FE344B1B68002B57D14B
:1005EC002E4B05221A60354B1B682F4A82FB0312D7
:1005FC009211DB17D31A2D4A13604FF47A7000F066
:10060C003FFE962000F056FE42E00E2000F06AFFFE
:10061C0000F02CFB284B1B68012B10D1264B002221
:10062C001A60224B1B68013B204A1360214B1B684C
:10063C00013B204A13604FF47A7000F021FE1B4BF3
:10064C001B68002B26D1154B02221A60154B1B6818
:10065C00154A82FB03129211DB17D31A134A13604B
:10066C00134B1B68104A82FB03129211DB17D31A2F
:10067C00104A13604FF47A7000F002FE962000F0DE
:10068C0019FE07E000BF06E000BF04E000BF02E077
:10069C0000BF00E000BF00BF80BD00BF48000020CD
:1006AC00000801403C000020D34D6210D80000200F
:1006BC0044000020DC000020C4000020400000208A
:1006CC0080B500AF314B1B68012B3BD12F4B002267
:1006DC001A602F4B1B68153B032B35D801A252F81F
:1006EC0023F000BF010700081B0700082F070008B4
:1006FC0043070008274B06221A60254B16221A6066
:10070C000F2000F0EFFEFA2000F0EEFD1DE0204B74
:10071C0017221A60102000F0E5FEFA2000F0E4FD2C
:10072C0013E01B4B18221A60112000F0DBFEFA209C
:10073C0000F0DAFD09E0164B15221A60154B012268
:10074C001A6002E000BF00E000BF114B1B68182BC1
:10075C0012D0182B16DC162B02D0172B06D011E05A
:10076C000D4B1B68184600F01BFB0CE00B4B1B6879
:10077C00184600F015FB06E0094B1B68184600F004
:10078C000FFB00E000BF00BF80BD00BFA400002035
:10079C004C00002048000020500000205400002095
:1007AC005800002080B500AF364B1B68182B42D088
:1007BC00182B5EDC162B02D0172B1ED059E0FFF73E
:1007CC00BFFC0346002B0ED02F4B1B6803F57A732E
:1007DC002D4A13602C4B1B682C4A934203DD2A4B89
:1007EC004FF47A721A60FFF7BDFC0346002B42D01F
:1007FC00254B1B68264A13603DE0FFF7A1FC03461E
:10080C00002B0ED0234B1B6803F57A73214A13601F
:10081C00204B1B681D4A934203DD1E4B4FF47A722A
:10082C001A60FFF79FFC0346002B26D0194B1B6860
:10083C00194A136021E0FFF783FC0346002B0ED00E
:10084C00164B1B6803F57A73144A1360134B1B6821
:10085C000E4A934203DD114B4FF47A721A60FFF784
:10086C0081FC0346002B0AD00C4B1B680C4A13600E
:10087C0005E000BF04E000BF02E000BF00E000BFE5
:10088C0000BF80BD4C00002050000020B882010049
:10089C003C000020540000204000002058000020A4
:1008AC004400002080B582B000AF78607B68002BDC
:1008BC0025D100221021CC4801F02DFB0022202153
:1008CC00C94801F028FB00224021C74801F023FB56
:1008DC0000228021C44801F01EFB00224FF48071DD
:1008EC00C14801F018FB00224FF40071BE4801F022
:1008FC0012FB01224FF48061BB4801F00CFB7B68BA
:10090C00012B25D101221021B74801F004FB002254
:10091C002021B54801F0FFFA00224021B24801F035
:10092C00FAFA01228021B04801F0F5FA01224FF4C5
:10093C008071AD4801F0EFFA01224FF40071AA4822
:10094C0001F0E9FA01224FF48061A74801F0E3FAC3
:10095C007B68022B25D100221021A34801F0DBFA81
:10096C0000222021A04801F0D6FA012240219E4805
:10097C0001F0D1FA002280219B4801F0CCFA002230
:10098C004FF48071984801F0C6FA01224FF40071BF
:10099C00954801F0C0FA00224FF48061924801F0B2
:1009AC00BAFA7B68032B25D1002210218E4801F066
:1009BC00B2FA002220218C4801F0ADFA002240212D
:1009CC00894801F0A8FA00228021874801F0A3FA97
:1009DC0001224FF48071844801F09DFA01224FF4FA
:1009EC000071814801F097FA00224FF480617E4833
:1009FC0001F091FA7B68042B25D1012210217A4851
:100A0C0001F089FA00222021774801F084FA0022B3
:100A1C004021754801F07FFA01228021724801F0D3
:100A2C007AFA01224FF480716F4801F074FA0022B7
:100A3C004FF400716C4801F06EFA00224FF48061A3
:100A4C00694801F068FA7B68052B25D1002210213A
:100A5C00654801F060FA01222021634801F05BFA3D
:100A6C0000224021604801F056FA002280215E48A5
:100A7C0001F051FA01224FF480715B4801F04BFAFE
:100A8C0000224FF40071584801F045FA00224FF44F
:100A9C008061554801F03FFA7B68062B25D1002276
:100AAC001021514801F037FA012220214E4801F063
:100ABC0032FA002240214C4801F02DFA002280210C
:100ACC00494801F028FA00224FF48071464801F0A1
:100ADC0022FA00224FF40071434801F01CFA002264
:100AEC004FF48061404801F016FA7B68072B25D142
:100AFC00002210213C4801F00EFA002220213A4835
:100B0C0001F009FA00224021374801F004FA0122D1
:100B1C008021354801F0FFF901224FF480713248F1
:100B2C0001F0F9F901224FF400712F4801F0F3F9AB
:100B3C0001224FF480612C4801F0EDF97B68082B01
:100B4C0025D100221021284801F0E5F900222021AE
:100B5C00254801F0E0F900224021234801F0DBF99F
:100B6C0000228021204801F0D6F900224FF4807138
:100B7C001D4801F0D0F900224FF400711A4801F021
:100B8C00CAF900224FF48061174801F0C4F97B6860
:100B9C00092B25D100221021134801F0BCF90022A9
:100BAC002021114801F0B7F9002240210E4801F034
:100BBC00B2F9002280210C4801F0ADF901224FF46A
:100BCC008071094801F0A7F900224FF40071064822
:100BDC0001F0A1F900224FF48061034801F09BF968
:100BEC0000BF0837BD4680BD000C014080B400AF8B
:100BFC001A4B1B681A4A82FB03129210DB17D31A8A
:100C0C00184A1360154B1968154B83FB01239A1076
:100C1C00CB17D21A13469B0013445B00CA1A114B14
:100C2C005A60114B1B680E4A82FB03129210DB17A1
:100C3C00D31A0C4A93600C4B1968094B83FB0123A4
:100C4C009A10CB17D21A13469B0013445B00CA1A96
:100C5C00044BDA6000BFBD4680BC7047D800002052
:100C6C00676666665C000020DC00002080B500AF83
:100C7C00FFF7BCFF464B1B68012B40F08780454BB0
:100C8C001B68032B72D801A252F823F0A90C0008A0
:100C9C00DD0C0008110D0008450D00080022012193
:100CAC003D4801F038F9012202213B4801F033F9AB
:100CBC0001220421384801F02EF90122082136487E
:100CCC0001F029F9354B1B681846FFF7EBFD4EE098
:100CDC0001220121304801F01EF9002202212E4888
:100CEC0001F019F9012204212B4801F014F9012219
:100CFC000821294801F00FF9284B5B681846FFF7CB
:100D0C00D1FD34E001220121234801F004F9012234
:100D1C000221214801F0FFF8002204211E4801F0B5
:100D2C00FAF8012208211C4801F0F5F81B4B9B68CE
:100D3C001846FFF7B7FD1AE001220121164801F011
:100D4C00EAF801220221144801F0E5F801220421FD
:100D5C00114801F0E0F8002208210F4801F0DBF8FF
:100D6C000E4BDB681846FFF79DFD00E000BF094BFA
:100D7C001B680133074A1360064B1B68032B02DD0B
:100D8C00044B00221A60962000F094FA00BF80BD3C
:100D9C00CC000020B0000020000C01405C000020C2
:100DAC0080B584B000AF78607B688C4A82FB0312FC
:100DBC001213DB17D31AFB607B68894A82FB031280
:100DCC009211DB17D21A874B83FB02139910D3179E
:100DDC00C91A0B469B000B445B00D31ABB60824BB9
:100DEC001B68012B40F0F580804B1B68032B00F235
:100DFC009B8001A252F823F0150E0008450E000846
:100E0C00750E0008D50E000800220121784801F06B
:100E1C0082F801220221764801F07DF8012204219A
:100E2C00734801F078F801220821714801F073F839
:100E3C00F868FFF737FD7CE0012201216C4801F0D6
:100E4C006AF8002202216A4801F065F801220421A7
:100E5C00674801F060F801220821654801F05BF851
:100E6C00B868FFF71FFD64E001220121604801F022
:100E7C0052F8012202215E4801F04DF800220421B3
:100E8C005B4801F048F801220821594801F043F869
:100E9C00584B1B68162B04D1574B1B681846FFF791
:100EAC0001FD544B1B68172B04D1534B5B68184640
:100EBC00FFF7F8FC4F4B1B68182B37D14E4B9B6838
:100ECC001846FFF7EFFC31E001220121484801F000
:100EDC0022F801220221464801F01DF801220421CA
:100EEC00434801F018F800220821414801F013F89A
:100EFC00404B1B68162B04D13F4B1B681846FFF761
:100F0C00D1FC3C4B1B68172B04D13B4B5B68184640
:100F1C00FFF7C8FC374B1B68182B09D1364B9B6865
:100F2C001846FFF7BFFC03E000BF02E000BF00E083
:100F3C0000BF2E4B1B6801332C4A13602B4B1B68D4
:100F4C00032B02DD294B00221A602A4B1B68162B3F
:100F5C0010D10221294800F0F6FF1021274800F09B
:100F6C00F2FF8021254800F0EEFF4FF4806123480A
:100F7C0000F0E9FF1F4B1B68172B11D108211F48EC
:100F8C0000F0E1FF40211D4800F0DDFF4FF400713F
:100F9C001A4800F0D8FF4FF48051184800F0D3FFE6
:100FAC00144B1B68182B11D10421144800F0CBFFF3
:100FBC002021124800F0C7FF4FF480710F4800F059
:100FCC00C2FF4FF400610D4800F0BDFFFA2000F0A5
:100FDC008BF900BF1037BD4680BD00BFAD8BDB6801
:100FEC00D34D621067666666D4000020B400002002
:100FFC00000C01404C0000206C0000200008014057
:10100C0080B500AF00F086FC00F014F800F09AF800
:10101C0000F04CF8064801F0DBFB642000F016F9F8
:10102C00FFF7D6F9FFF74CFBFFF7BCFBF8E700BF67
:10103C00E000002080B590B000AF07F11803282223
:10104C000021184601F074FF3B1D00221A605A6003
:10105C009A60DA601A610223BB610123BB62102320
:10106C00FB6200237B6307F11803184600F084FF32
:10107C000346002B01D000F0E3F80F237B60002324
:10108C00BB600023FB6000233B6100237B613B1DA5
:10109C000021184601F0F0F90346002B01D000F0B6
:1010AC00CFF800BF4037BD4680BD000080B586B08C
:1010BC0000AF07F1080300221A605A609A60DA60E8
:1010CC003B4600221A605A601D4B4FF080421A605A
:1010DC001B4B41F63F725A60194B00229A60184B19
:1010EC000922DA60164B00221A61154B00229A6114
:1010FC00134801F01DFB0346002B01D000F0A0F8B3
:10110C004FF48053BB6007F1080319460C4801F0FB
:10111C009BFC0346002B01D000F092F800233B60AF
:10112C0000237B603B461946054801F073FE0346DD
:10113C00002B01D000F084F800BF1837BD4680BDED
:10114C00E000002080B588B000AF07F1100300224A
:10115C001A605A609A60DA602F4B9B692E4A43F0F2
:10116C00100393612C4B9B6903F01003FB60FB682D
:10117C00294B9B69284A43F004039361264B9B69D6
:10118C0003F00403BB60BB68234B9B69224A43F00A
:10119C0008039361204B9B6903F008037B607B6819
:1011AC00002241F6FE711D4800F0B5FE002240F60B
:1011BC00FF711B4800F0AFFE4FF460433B6100230E
:1011CC007B610123BB6107F110031946154800F040
:1011DC0011FD41F6FE733B6101237B610023BB6172
:1011EC000223FB6107F1100319460C4800F002FDC5
:1011FC0040F6FF733B6101237B610023BB6102233B
:10120C00FB6107F110031946054800F0F3FC00BF21
:10121C002037BD4680BD00BF0010024000080140D1
:10122C00000C01400010014080B582B000AF786026
:10123C0000F074F8FEF7D2FF00BF0837BD4680BD42
:10124C0080B400AF72B600BFFEE7000080B483B07C
:10125C0000AF7860074B1B687A6892FBF3F3064A81
:10126C001360064B00221A6000BF0C37BD4680BCD1
:10127C00704700BF78000020B8000020BC000020A0
:10128C0080B483B000AF7860074B1B687A6892FB20
:10129C00F3F3064A1360064B00221A6000BF0C37AA
:1012AC00BD4680BC704700BF78000020C000002005
:1012BC00C400002080B483B000AF7860074B1B687B
:1012CC007A6892FBF3F3064A1360064B00221A600D
:1012DC0000BF0C37BD4680BC704700BF78000020B3
:1012EC00C8000020CC00002080B483B000AF786030
:1012FC00074B1B687A6892FBF3F3064A1360064BA4
:10130C0000221A6000BF0C37BD4680BC704700BF7E
:10131C0078000020D0000020D400002080B400AF62
:10132C00214B1B68002B0BDD1F4B1B68013B1E4A1E
:10133C0013601D4B1B68002B02DC1C4B01221A6036
:10134C001B4B1B68002B0BDD194B1B68013B184A10
:10135C001360174B1B68002B02DC164B01221A6022
:10136C00154B1B68002B0BDD134B1B68013B124A02
:10137C001360114B1B68002B02DC104B01221A600E
:10138C000F4B1B68002B0BDD0D4B1B68013B0C4AF4
:10139C0013600B4B1B68002B02DC0A4B01221A60FA
:1013AC0000BFBD4680BC7047B8000020BC000020C8
:1013BC00C0000020C4000020C8000020CC00002089
:1013CC00D0000020D400002080B485B000AF154BB5
:1013DC009B69144A43F001039361124B9B6903F020
:1013EC000103BB60BB680F4BDB690E4A43F08053B3
:1013FC00D3610C4BDB6903F080537B607B680A4B39
:10140C005B68FB60FB6823F0E063FB60FB6843F008
:10141C000073FB60044AFB68536000BF1437BD4681
:10142C0080BC7047001002400000014080B584B0C1
:10143C0000AF78607B681B68B3F1804F13D10C4B05
:10144C00DB690B4A43F00103D361094BDB6903F001
:10145C000103FB60FB68002200211C2000F093FBC1
:10146C001C2000F0ACFB00BF1037BD4680BD00BF98
:10147C000010024080B400AFFEE780B400AFFEE77E
:10148C0080B400AFFEE780B400AFFEE780B400AFDD
:10149C00FEE780B400AF00BFBD4680BC704780B48F
:1014AC0000AF00BFBD4680BC704780B400AF00BF2A
:1014BC00BD4680BC704780B500AF00F071FA00BF2C
:1014CC0080BD000080B500AF024801F0CDF900BF2F
:1014DC0080BD00BFE000002080B400AF00BFBD465F
:1014EC0080BC704780B582B000AF78607B680B3BE6
:1014FC00062B00F2E18101A252F823F02515000819
:10150C00A91500082D160008B1160008351700089B
:10151C00B91700084118000800220221C44800F045
:10152C00FAFC00220421C24800F0F5FC012208213B
:10153C00BF4800F0F0FC01221021BD4800F0EBFC8C
:10154C0001222021BA4800F0E6FC01224021B848D3
:10155C0000F0E1FC00228021B54800F0DCFC002208
:10156C004FF48071B24800F0D6FC01224FF40071A8
:10157C00AF4800F0D0FC01224FF48061AC4800F081
:10158C00CAFC01224FF40061A94800F0C4FC0122FE
:10159C004FF48051A64800F0BEFC8EE100220221DF
:1015AC00A34800F0B8FC01220421A14800F0B3FCD0
:1015BC00002208219E4800F0AEFC012210219C481C
:1015CC0000F0A9FC01222021994800F0A4FC012282
:1015DC004021974800F09FFC00228021944800F0A5
:1015EC009AFC01224FF48071914800F094FC002287
:1015FC004FF400718E4800F08EFC01224FF4806194
:10160C008B4800F088FC01224FF40061884800F000
:10161C0082FC01224FF48051854800F07CFC4CE1A7
:10162C0001220221824800F076FC0122042180482C
:10163C0000F071FC012208217D4800F06CFC0022B6
:10164C0010217B4800F067FC00222021784800F034
:10165C0062FC01224021764800F05DFC01228021D1
:10166C00734800F058FC01224FF48071704800F070
:10167C0052FC01224FF400716D4800F04CFC00222A
:10168C004FF480616A4800F046FC00224FF4006180
:10169C00674800F040FC01224FF48051644800F090
:1016AC003AFC0AE101220221614800F034FC0122DB
:1016BC0004215F4800F02FFC012208215C4800F057
:1016CC002AFC002210215A4800F025FC012220217E
:1016DC00574800F020FC00224021554800F01BFC2C
:1016EC0001228021524800F016FC01224FF4807137
:1016FC004F4800F010FC01224FF400714C4800F0F0
:10170C000AFC00224FF48061494800F004FC0122DD
:10171C004FF40061464800F0FEFB00224FF480516C
:10172C00434800F0F8FBC8E000220221404800F0DA
:10173C00F2FB012204213E4800F0EDFB01220821BE
:10174C003B4800F0E8FB00221021394800F0E3FB95
:10175C0001222021364800F0DEFB012240213448D2
:10176C0000F0D9FB00228021314800F0D4FB01228B
:10177C004FF480712E4800F0CEFB01224FF4007123
:10178C002B4800F0C8FB00224FF48061284800F081
:10179C00C2FB01224FF40061254800F0BCFB012282
:1017AC004FF48051224800F0B6FB86E00122022162
:1017BC001F4800F0B0FB012204211D4800F0ABFBD8
:1017CC00002208211A4800F0A6FB0122102118481B
:1017DC0000F0A1FB01222021154800F09CFB002207
:1017EC004021134800F097FB01228021104800F0A3
:1017FC0092FB01224FF480710D4800F08CFB00220B
:10180C004FF400710A4800F086FB01224FF480610E
:10181C00074800F080FB01224FF40061044800F0FF
:10182C007AFB00224FF48051014800F074FB44E035
:10183C000008014001220221224800F06CFB00222A
:10184C000421204800F067FB012208211D4800F00C
:10185C0062FB012210211B4800F05DFB00222021BD
:10186C00184800F058FB01224021164800F053FBA9
:10187C0001228021134800F04EFB00224FF48071AE
:10188C00104800F048FB01224FF400710D4800F0A5
:10189C0042FB01224FF480610A4800F03CFB00221D
:1018AC004FF40061074800F036FB01224FF48051E1
:1018BC00044800F030FB00E000BF00BF0837BD4615
:1018CC0080BD00BF00080140FFF706FE0B480C4925
:1018DC000C4A002302E0D458C4500433C4188C4280
:1018EC00F9D3094A094C002301E013600432A242E7
:1018FC00FBD301F0F9FAFFF783FB704700000020DF
:10190C0088000020902F0008880000202C01002067
:10191C00FEE7000080B500AF084B1B68074A43F098
:10192C0010031360032000F023F90F2000F008F8D7
:10193C00FFF74AFD0023184680BD00BF002002407F
:10194C0080B582B000AF7860124B1A68124B1B78CE
:10195C0019464FF47A73B3FBF1F3B2FBF3F3184669
:10196C0000F03BF90346002B01D001230EE07B680D
:10197C000F2B0AD8002279684FF0FF3000F003F9E2
:10198C00064A7B681360002300E0012318460837E1
:10199C00BD4680BD7C00002084000020800000201B
:1019AC0080B400AF054B1B781A46054B1B681344DB
:1019BC00034A136000BFBD4680BC70478400002002
:1019CC002801002080B400AF024B1B681846BD46AE
:1019DC0080BC70472801002080B485B000AF7860CF
:1019EC007B6803F00703FB600C4BDB68BB60BA68D9
:1019FC004FF6FF031340BB60FB681A02BB6813432E
:101A0C0043F0BF6343F40033BB60044ABB68D3604C
:101A1C0000BF1437BD4680BC704700BF00ED00E02E
:101A2C0080B400AF044BDB681B0A03F007031846B5
:101A3C00BD4680BC704700BF00ED00E080B483B0B1
:101A4C0000AF0346FB7197F90730002B0BDBFB79DA
:101A5C0003F01F02064997F907305B09012000FAD1
:101A6C0002F241F8232000BF0C37BD4680BC704702
:101A7C0000E100E080B483B000AF03463960FB7135
:101A8C0097F90730002B0ADB3B68DAB20C4997F95F
:101A9C0007301201D2B20B4483F800230AE03B68F2
:101AAC00DAB20849FB7903F00F03043B1201D2B2FE
:101ABC000B441A7600BF0C37BD4680BC704700BF84
:101ACC0000E100E000ED00E080B489B000AFF86008
:101ADC00B9607A60FB6803F00703FB61FB69C3F133
:101AEC000703042B28BF0423BB61FB690433062BBB
:101AFC0002D9FB69033B00E000237B614FF0FF320E
:101B0C00BB6902FA03F3DA43BB681A407B699A405B
:101B1C004FF0FF317B6901FA03F3D9437B680B402B
:101B2C00134318462437BD4680BC704780B582B03D
:101B3C0000AF78607B68013BB3F1807F01D3012358
:101B4C000FE00A4A7B68013B53600F214FF0FF30D6
:101B5C00FFF790FF054B00229A60044B07221A6096
:101B6C00002318460837BD4680BD00BF10E000E0DA
:101B7C0080B582B000AF78607868FFF72DFF00BFAA
:101B8C000837BD4680BD80B586B000AF0346B9604E
:101B9C007A60FB7300237B61FFF742FF78617A6800
:101BAC00B9687869FFF790FF024697F90F30114634
:101BBC001846FFF75FFF00BF1837BD4680BD80B5E4
:101BCC0082B000AF0346FB7197F907301846FFF758
:101BDC0035FF00BF0837BD4680BD80B582B000AF71
:101BEC0078607868FFF7A2FF034618460837BD46B1
:101BFC0080BD000080B48BB000AF786039600023EA
:101C0C007B6200233B6248E101227B6A02FA03F308
:101C1C00FB613B681B68FA691340BB61BA69FB69DD
:101C2C009A4240F037813B685B68A34A93425ED08E
:101C3C00A14A934275D8A14A934258D09F4A9342E5
:101C4C006FD89F4A934252D09D4A934269D89D4A7D
:101C5C0093424CD09B4A934263D89B4A934246D0C2
:101C6C00994A93425DD8122B2AD8122B59D801A22B
:101C7C0052F823F0FB1C0008D51C0008E71C0008D8
:101C8C00291D00082F1D00082F1D00082F1D0008FE
:101C9C002F1D00082F1D00082F1D00082F1D0008E8
:101CAC002F1D00082F1D00082F1D00082F1D0008D8
:101CBC002F1D00082F1D0008DD1C0008F11C00085A
:101CCC00824A934213D02CE03B68DB683B6229E0EC
:101CDC003B68DB6804333B6224E03B68DB68083319
:101CEC003B621FE03B68DB680C333B621AE03B68ED
:101CFC009B68002B02D104233B6213E03B689B687A
:101D0C00012B05D108233B627B68FA691A6109E053
:101D1C0008233B627B68FA695A6103E000233B624B
:101D2C0000E000BFBB69FF2B01D87B6801E07B683A
:101D3C0004337B61BB69FF2B02D87B6A9B0002E0FA
:101D4C007B6A083B9B003B617B691A680F213B69EE
:101D5C0001FA03F3DB431A40396A3B6901FA03F3D6
:101D6C001A437B691A603B685B6803F08053002B55
:101D7C0000F09080564B9B69554A43F001039361E8
:101D8C00534B9B6903F00103BB60BB68514A7B6AF0
:101D9C009B08023352F82330FB607B6A03F0030389
:101DAC009B000F2202FA03F3DB43FA681340FB603B
:101DBC007B68494A93420DD07B68484A934207D0CE
:101DCC007B68474A934201D1022304E0032302E0DB
:101DDC00012300E000237A6A02F003029200934090
:101DEC00FA681343FB603B497B6A9B080233FA6831
:101DFC0041F823203B685B6803F48013002B06D06A
:101E0C00384B9A683749BB6913438B6006E0354BF6
:101E1C009A68BB69DB43334913408B603B685B6852
:101E2C0003F40013002B06D02E4BDA682D49BB6946
:101E3C001343CB6006E02B4BDA68BB69DB432949C3
:101E4C001340CB603B685B6803F40033002B06D077
:101E5C00244B5A682349BB6913434B6006E0214B62
:101E6C005A68BB69DB431F4913404B603B685B6896
:101E7C0003F48033002B06D01A4B1A681949BB693E
:101E8C0013430B6006E0174B1A68BB69DB4315491B
:101E9C0013400B607B6A01337B623B681A687B6A78
:101EAC0022FA03F3002B7FF4AFAE00BF00BF2C3738
:101EBC00BD4680BC704700BF0000321000003110DE
:101ECC000000221000002110000012100000111060
:101EDC00001002400000014000080140000C0140CD
:101EEC00001001400004014080B485B000AF786060
:101EFC000B467B807B689A687B881340002B02D052
:101F0C000123FB7301E00023FB73FB7B18461437A2
:101F1C00BD4680BC704780B483B000AF78600B4680
:101F2C007B8013467B707B78002B03D07A887B6890
:101F3C001A6103E07B881A047B681A6100BF0C37B6
:101F4C00BD4680BC704780B485B000AF78600B464E
:101F5C007B807B68DB68FB607A88FB6813401A0423
:101F6C00FB68D9437B880B401A437B681A6100BF1E
:101F7C001437BD4680BC704780B586B000AF786022
:101F8C007B68002B01D101236CE27B681B6803F09A
:101F9C000103002B00F08780924B5B6803F00C036D
:101FAC00042B0CD08F4B5B6803F00C03082B12D165
:101FBC008C4B5B6803F48033B3F5803F0BD1894BBA
:101FCC001B6803F40033002B6CD07B685B68002B20
:101FDC0068D1012346E27B685B68B3F5803F06D18C
:101FEC00804B1B687F4A43F4803313602EE07B6880
:101FFC005B68002B0CD17B4B1B687A4A23F4803333
:10200C001360784B1B68774A23F4802313601DE020
:10201C007B685B68B3F5A02F0CD1724B1B68714ABF
:10202C0043F4802313606F4B1B686E4A43F4803378
:10203C0013600BE06B4B1B686A4A23F4803313600C
:10204C00684B1B68674A23F4802313607B685B68CA
:10205C00002B13D0FFF7B6FC386108E0FFF7B2FC99
:10206C0002463B69D31A642B01D90323FAE15D4B79
:10207C001B6803F40033002BF0D014E0FFF7A2FC34
:10208C00386108E0FFF79EFC02463B69D31A642BCB
:10209C0001D90323E6E1534B1B6803F40033002BF7
:1020AC00F0D100E000BF7B681B6803F00203002B3B
:1020BC0063D04C4B5B6803F00C03002B0BD0494BEB
:1020CC005B6803F00C03082B1CD1464B5B6803F4D4
:1020DC008033002B16D1434B1B6803F00203002BFB
:1020EC0005D07B681B69012B01D00123BAE13D4B64
:1020FC001B6823F0F8027B685B69DB0039491343EA
:10210C000B603AE07B681B69002B20D0364B012218
:10211C001A60FFF757FC386108E0FFF753FC0246E2
:10212C003B69D31A022B01D903239BE12D4B1B686E
:10213C0003F00203002BF0D02A4B1B6823F0F802AB
:10214C007B685B69DB00274913430B6015E0264B6A
:10215C0000221A60FFF736FC386108E0FFF732FC0A
:10216C0002463B69D31A022B01D903237AE11D4B9A
:10217C001B6803F00203002BF0D17B681B6803F093
:10218C000803002B3AD07B689B69002B19D0174BA6
:10219C0001221A60FFF716FC386108E0FFF712FC09
:1021AC0002463B69D31A022B01D903235AE10D4B8A
:1021BC005B6A03F00203002BF0D0012000F09AFAC6
:1021CC001CE00A4B00221A60FFF7FCFB38610FE0A1
:1021DC00FFF7F8FB02463B69D31A022B08D90323FD
:1021EC0040E100BF00100240000042428004424225
:1021FC009E4B5B6A03F00203002BE9D17B681B68E2
:10220C0003F00403002B00F0A6800023FB75974B12
:10221C00DB6903F08053002B0DD1944BDB69934A9F
:10222C0043F08053D361914BDB6903F08053BB6067
:10223C00BB680123FB758E4B1B6803F48073002B6A
:10224C0018D18B4B1B688A4A43F480731360FFF7D9
:10225C00B9FB386108E0FFF7B5FB02463B69D31ABE
:10226C00642B01D90323FDE0814B1B6803F48073BD
:10227C00002BF0D07B68DB68012B06D17B4B1B6AF3
:10228C007A4A43F0010313622DE07B68DB68002B74
:10229C000CD1764B1B6A754A23F001031362734B06
:1022AC001B6A724A23F0040313621CE07B68DB6830
:1022BC00052B0CD16D4B1B6A6C4A43F00403136263
:1022CC006A4B1B6A694A43F0010313620BE0674BCC
:1022DC001B6A664A23F001031362644B1B6A634A50
:1022EC0023F0040313627B68DB68002B15D0FFF727
:1022FC0069FB38610AE0FFF765FB02463B69D31ABC
:10230C0041F28832934201D90323ABE0574B1B6A4D
:10231C0003F00203002BEED014E0FFF753FB3861FF
:10232C000AE0FFF74FFB02463B69D31A41F28832B1
:10233C00934201D9032395E04C4B1B6A03F0020333
:10234C00002BEED1FB7D012B05D1484BDB69474AB5
:10235C0023F08053D3617B68DB69002B00F0818014
:10236C00424B5B6803F00C03082B61D07B68DB6984
:10237C00022B46D13F4B00221A60FFF723FB38613A
:10238C0008E0FFF71FFB02463B69D31A022B01D969
:10239C00032367E0354B1B6803F00073002BF0D16F
:1023AC007B681B6AB3F5803F08D1304B5B6823F424
:1023BC0000327B689B682D4913434B602B4B5B6849
:1023CC0023F474127B68196A7B685B6A0B43274998
:1023DC0013434B60274B01221A60FFF7F3FA386165
:1023EC0008E0FFF7EFFA02463B69D31A022B01D93A
:1023FC00032337E01D4B1B6803F00073002BF0D058
:10240C002FE01C4B00221A60FFF7DCFA386108E061
:10241C00FFF7D8FA02463B69D31A022B01D90323E2
:10242C0020E0124B1B6803F00073002BF0D118E076
:10243C007B68DB69012B01D1012313E00B4B5B683B
:10244C00FB60FB6803F480327B681B6A9A4206D1FE
:10245C00FB6803F470127B685B6A9A4201D001231B
:10246C0000E0002318461837BD4680BD001002401E
:10247C00007000406000424280B584B000AF7860CC
:10248C0039607B68002B01D10123D0E06A4B1B68BB
:10249C0003F007033A689A4210D9674B1B6823F084
:1024AC00070265493B6813430B60634B1B6803F0E1
:1024BC0007033A689A4201D00123B8E07B681B6895
:1024CC0003F00203002B20D07B681B6803F004038D
:1024DC00002B05D0594B5B68584A43F4E0635360BA
:1024EC007B681B6803F00803002B05D0534B5B681B
:1024FC00524A43F460535360504B5B6823F0F00234
:10250C007B689B684D4913434B607B681B6803F0E9
:10251C000103002B40D07B685B68012B07D1474B34
:10252C001B6803F40033002B15D101237FE07B687B
:10253C005B68022B07D1414B1B6803F00073002B27
:10254C0009D1012373E03D4B1B6803F00203002B00
:10255C0001D101236BE0394B5B6823F003027B68EC
:10256C005B68364913434B60FFF72CFAF8600AE0BE
:10257C00FFF728FA0246FB68D31A41F288329342DD
:10258C0001D9032353E02D4B5B6803F00C027B68ED
:10259C005B689B009A42EBD1274B1B6803F0070347
:1025AC003A689A4210D2244B1B6823F00702224946
:1025BC003B6813430B60204B1B6803F007033A681E
:1025CC009A4201D0012332E07B681B6803F00403BC
:1025DC00002B08D0194B5B6823F4E0627B68DB6846
:1025EC00164913434B607B681B6803F00803002BF0
:1025FC0009D0124B5B6823F460527B681B69DB00CB
:10260C000E4913434B6000F021F802460B4B5B68FC
:10261C001B0903F00F030A49CB5C22FA03F3094AA6
:10262C001360094B1B681846FFF78AF900231846FC
:10263C001037BD4680BD00BF002002400010024094
:10264C00642F00087C0000208000002080B487B03C
:10265C0000AF0023FB600023BB6000237B610023E1
:10266C007B6000233B611E4B5B68FB60FB6803F0E7
:10267C000C03042B02D0082B03D027E0194B3B6131
:10268C0027E0FB689B0C03F00F03174AD35C7B60BD
:10269C00FB6803F48033002B10D0114B5B685B0C90
:1026AC0003F00103114AD35CBB607B680D4A02FB4B
:1026BC0003F2BB68B2FBF3F37B6104E07B680C4A6A
:1026CC0002FB03F37B617B693B6102E0054B3B61E1
:1026DC0000BF3B6918461C37BD4680BC704700BF25
:1026EC000010024000127A00742F0008842F00089A
:1026FC0000093D0080B485B000AF78600A4B1B68C0
:10270C000A4AA2FB03235B0A7A6802FB03F3FB6011
:10271C0000BFFB685A1EFA60002BF9D100BF00BF46
:10272C001437BD4680BC70477C000020D34D62102E
:10273C0080B582B000AF78607B68002B01D101239B
:10274C0041E07B6893F83D30DBB2002B06D17B680F
:10275C00002283F83C207868FEF768FE7B68022232
:10276C0083F83D207B681A687B6804331946104651
:10277C0000F056FA7B68012283F846207B68012220
:10278C0083F83E207B68012283F83F207B6801227E
:10279C0083F840207B68012283F841207B6801226A
:1027AC0083F842207B68012283F843207B68012256
:1027BC0083F844207B68012283F845207B68012242
:1027CC0083F83D20002318460837BD4680BD000025
:1027DC0080B485B000AF78607B6893F83D30DBB295
:1027EC00012B01D0012335E07B68022283F83D20C8
:1027FC007B681B68DA687B681B6842F00102DA6050
:10280C007B681B68164A934209D07B681B68B3F13E
:10281C00804F04D07B681B68124A934211D17B68AD
:10282C001B689B6803F00703FB60FB68062B10D04A
:10283C007B681B681A687B681B6842F001021A608F
:10284C0007E07B681B681A687B681B6842F0010212
:10285C001A60002318461437BD4680BC704700BF71
:10286C00002C01400004004080B584B000AF7860BB
:10287C007B681B68DB68FB607B681B681B69BB6043
:10288C00BB6803F00203002B20D0FB6803F00203AB
:10289C00002B1BD07B681B686FF002021A617B68EF
:1028AC0001221A777B681B689B6903F00303002BDA
:1028BC0003D0786800F098F905E0786800F08BF99F
:1028CC00786800F09AF97B6800221A77BB6803F0ED
:1028DC000403002B20D0FB6803F00403002B1BD057
:1028EC007B681B686FF004021A617B6802221A77FE
:1028FC007B681B689B6903F44073002B03D07868DA
:10290C0000F072F905E0786800F065F9786800F07D
:10291C0074F97B6800221A77BB6803F00803002B5C
:10292C0020D0FB6803F00803002B1BD07B681B68CE
:10293C006FF008021A617B6804221A777B681B68A7
:10294C00DB6903F00303002B03D0786800F04CF92B
:10295C0005E0786800F03FF9786800F04EF97B6884
:10296C0000221A77BB6803F01003002B20D0FB6801
:10297C0003F01003002B1BD07B681B686FF0100258
:10298C001A617B6808221A777B681B68DB6903F481
:10299C004073002B03D0786800F026F905E07868C6
:1029AC0000F019F9786800F028F97B6800221A7792
:1029BC00BB6803F00103002B0CD0FB6803F0010390
:1029CC00002B07D07B681B686FF001021A617868D6
:1029DC00FEF72AFCBB6803F08003002B0CD0FB68CD
:1029EC0003F08003002B07D07B681B686FF080021C
:1029FC001A61786800F06FFABB6803F04003002B93
:102A0C000CD0FB6803F04003002B07D07B681B68DD
:102A1C006FF040021A61786800F0F8F8BB6803F0B8
:102A2C002003002B0CD0FB6803F02003002B07D0F5
:102A3C007B681B686FF020021A61786800F042FA1C
:102A4C0000BF1037BD4680BD80B584B000AF786044
:102A5C0039600023FB737B6893F83C30012B01D168
:102A6C000223B4E07B68012283F83C207B680222BD
:102A7C0083F83D207B681B689B68BB60BB6823F0B8
:102A8C007703BB60BB6823F47F43BB607B681B6828
:102A9C00BA689A603B681B68B3F5005F3ED0B3F52B
:102AAC00005F00F28780B3F5805F00F08680B3F59D
:102ABC00805F7FD8702B1AD0702B7BD8602B50D0B6
:102ACC00602B77D8502B3CD0502B73D8402B58D040
:102ADC00402B6FD8302B64D0302B6BD8202B60D090
:102AEC00202B67D8002B5CD0102B5AD062E07B686F
:102AFC0018683B6899683B685A683B68DB6800F06B
:102B0C006AF97B681B689B68BB60BB6843F0770302
:102B1C00BB607B681B68BA689A604FE07B6818687A
:102B2C003B6899683B685A683B68DB6800F053F96E
:102B3C007B681B689A687B681B6842F480429A60C9
:102B4C003CE07B6818683B6859683B68DB681A4650
:102B5C0000F0CAF87B681B685021184600F021F978
:102B6C002CE07B6818683B6859683B68DB681A4640
:102B7C0000F0E8F87B681B686021184600F011F93A
:102B8C001CE07B6818683B6859683B68DB681A4630
:102B9C0000F0AAF87B681B684021184600F001F988
:102BAC000CE07B681A683B681B681946104600F0FD
:102BBC00F8F803E00123FB7300E000BF7B680122FF
:102BCC0083F83D207B68002283F83C20FB7B184671
:102BDC001037BD4680BD80B483B000AF786000BFB5
:102BEC000C37BD4680BC704780B483B000AF7860B2
:102BFC0000BF0C37BD4680BC704780B483B000AFBB
:102C0C00786000BF0C37BD4680BC704780B483B081
:102C1C0000AF786000BF0C37BD4680BC7047000029
:102C2C0080B485B000AF786039607B681B68FB604E
:102C3C007B682B4A934207D07B68B3F1804F03D05B
:102C4C007B68284A934208D1FB6823F07003FB6031
:102C5C003B685B68FA681343FB607B68204A9342CD
:102C6C0007D07B68B3F1804F03D07B681D4A934239
:102C7C0008D1FB6823F44073FB603B68DB68FA689F
:102C8C001343FB60FB6823F080023B685B691343D2
:102C9C00FB607B68FA681A603B689A687B68DA624A
:102CAC003B681A687B689A627B680D4A934203D131
:102CBC003B681A697B681A637B6801225A617B68DE
:102CCC001B6903F00103002B05D07B681B6923F003
:102CDC0001027B681A6100BF1437BD4680BC704787
:102CEC00002C01400004004080B487B000AFF860B5
:102CFC00B9607A60FB681B6A7B61FB681B6A23F016
:102D0C000102FB681A62FB689B693B613B6923F01B
:102D1C00F0033B617B681B013A6913433B617B69A0
:102D2C0023F00A037B617A69BB6813437B61FB6800
:102D3C003A699A61FB687A691A6200BF1C37BD4612
:102D4C0080BC704780B487B000AFF860B9607A601F
:102D5C00FB681B6A7B61FB681B6A23F01002FB6833
:102D6C001A62FB689B693B613B6923F470433B61CE
:102D7C007B681B033A6913433B617B6923F0A00317
:102D8C007B61BB681B017A6913437B61FB683A6901
:102D9C009A61FB687A691A6200BF1C37BD4680BC19
:102DAC00704780B485B000AF786039607B689B68F1
:102DBC00FB60FB6823F07003FB603A68FB6813430D
:102DCC0043F00703FB607B68FA689A6000BF143716
:102DDC00BD4680BC704780B487B000AFF860B96066
:102DEC007A603B60FB689B687B617B6923F47F4363
:102DFC007B613B681A027B681A43BB6813437A6990
:102E0C0013437B61FB687A699A6000BF1C37BD462F
:102E1C0080BC704780B485B000AF786039607B6847
:102E2C0093F83C30012B01D1022341E07B68012255
:102E3C0083F83C207B68022283F83D207B681B686A
:102E4C005B68FB607B681B689B68BB60FB6823F05E
:102E5C007003FB603B681B68FA681343FB607B687C
:102E6C001B68FA685A607B681B68144A934209D045
:102E7C007B681B68B3F1804F04D07B681B68104AD9
:102E8C0093420CD1BB6823F08003BB603B685B684A
:102E9C00BA681343BB607B681B68BA689A607B682E
:102EAC00012283F83D207B68002283F83C2000231C
:102EBC0018461437BD4680BC704700BF002C01403B
:102ECC000004004080B483B000AF786000BF0C37C2
:102EDC00BD4680BC704780B483B000AF786000BF43
:102EEC000C37BD4680BC704770B500260C4D0D4CA0
:102EFC00641BA410A64209D100F022F800260A4D4A
:102F0C000A4C641BA410A64205D170BD55F8043BB5
:102F1C0098470136EEE755F8043B98470136F2E73F
:102F2C00882F0008882F0008882F00088C2F000895
:102F3C0003460244934200D1704703F8011BF9E7A2
:102F4C00F8B500BFF8BC08BC9E467047F8B500BF8A
:082F5C00F8BC08BC9E4670475A
:102F64000000000000000000010203040607080935
:102F740002030405060708090A0B0C0D0E0F1010B6
:042F84000102000046
:042F8800310100080B
:042F8C000D0100082B
:102F9000010000000100000001000000010000002D
:102FA000010000000100000001000000010000001D
:102FB000010000000100000001000000010000000D
:102FC000F4010000F4010000F40100008813000087
:102FD000D0070000B80B0000010000001500000041
:102FE00088130000D0070000B80B000001000000AB
:102FF00002000000030000000400000002000000C6
:1030000003000000040000000A00000000127A0023
:083010001000000001000000A7
:04000005080018D502
:00000001FF
